{
  "contractName": "AgoraTokens",
  "abi": [
    {
      "inputs": [],
      "stateMutability": "nonpayable",
      "type": "constructor"
    },
    {
      "anonymous": false,
      "inputs": [
        {
          "indexed": true,
          "internalType": "address",
          "name": "account",
          "type": "address"
        },
        {
          "indexed": true,
          "internalType": "address",
          "name": "operator",
          "type": "address"
        },
        {
          "indexed": false,
          "internalType": "bool",
          "name": "approved",
          "type": "bool"
        }
      ],
      "name": "ApprovalForAll",
      "type": "event"
    },
    {
      "anonymous": false,
      "inputs": [
        {
          "indexed": false,
          "internalType": "address[]",
          "name": "fromArr",
          "type": "address[]"
        },
        {
          "indexed": false,
          "internalType": "uint256[]",
          "name": "amount",
          "type": "uint256[]"
        }
      ],
      "name": "BurnedToken",
      "type": "event"
    },
    {
      "anonymous": false,
      "inputs": [
        {
          "indexed": false,
          "internalType": "uint256",
          "name": "tokenId",
          "type": "uint256"
        },
        {
          "indexed": false,
          "internalType": "uint256",
          "name": "price",
          "type": "uint256"
        }
      ],
      "name": "MintedNFT",
      "type": "event"
    },
    {
      "anonymous": false,
      "inputs": [
        {
          "indexed": false,
          "internalType": "address[]",
          "name": "toArr",
          "type": "address[]"
        },
        {
          "indexed": false,
          "internalType": "uint256[]",
          "name": "amount",
          "type": "uint256[]"
        }
      ],
      "name": "MintedToken",
      "type": "event"
    },
    {
      "anonymous": false,
      "inputs": [
        {
          "indexed": true,
          "internalType": "address",
          "name": "previousOwner",
          "type": "address"
        },
        {
          "indexed": true,
          "internalType": "address",
          "name": "newOwner",
          "type": "address"
        }
      ],
      "name": "OwnershipTransferred",
      "type": "event"
    },
    {
      "anonymous": false,
      "inputs": [
        {
          "indexed": true,
          "internalType": "address",
          "name": "operator",
          "type": "address"
        },
        {
          "indexed": true,
          "internalType": "address",
          "name": "from",
          "type": "address"
        },
        {
          "indexed": true,
          "internalType": "address",
          "name": "to",
          "type": "address"
        },
        {
          "indexed": false,
          "internalType": "uint256[]",
          "name": "ids",
          "type": "uint256[]"
        },
        {
          "indexed": false,
          "internalType": "uint256[]",
          "name": "values",
          "type": "uint256[]"
        }
      ],
      "name": "TransferBatch",
      "type": "event"
    },
    {
      "anonymous": false,
      "inputs": [
        {
          "indexed": true,
          "internalType": "address",
          "name": "operator",
          "type": "address"
        },
        {
          "indexed": true,
          "internalType": "address",
          "name": "from",
          "type": "address"
        },
        {
          "indexed": true,
          "internalType": "address",
          "name": "to",
          "type": "address"
        },
        {
          "indexed": false,
          "internalType": "uint256",
          "name": "id",
          "type": "uint256"
        },
        {
          "indexed": false,
          "internalType": "uint256",
          "name": "value",
          "type": "uint256"
        }
      ],
      "name": "TransferSingle",
      "type": "event"
    },
    {
      "anonymous": false,
      "inputs": [
        {
          "indexed": false,
          "internalType": "string",
          "name": "value",
          "type": "string"
        },
        {
          "indexed": true,
          "internalType": "uint256",
          "name": "id",
          "type": "uint256"
        }
      ],
      "name": "URI",
      "type": "event"
    },
    {
      "anonymous": false,
      "inputs": [
        {
          "indexed": false,
          "internalType": "address",
          "name": "buyer",
          "type": "address"
        },
        {
          "indexed": false,
          "internalType": "uint256",
          "name": "tokenId",
          "type": "uint256"
        },
        {
          "indexed": false,
          "internalType": "uint256",
          "name": "price",
          "type": "uint256"
        }
      ],
      "name": "UserNFTBuy",
      "type": "event"
    },
    {
      "anonymous": false,
      "inputs": [
        {
          "indexed": false,
          "internalType": "address",
          "name": "buyer",
          "type": "address"
        },
        {
          "indexed": false,
          "internalType": "uint256",
          "name": "tokenId",
          "type": "uint256"
        },
        {
          "indexed": false,
          "internalType": "uint256",
          "name": "price",
          "type": "uint256"
        }
      ],
      "name": "UserNFTFail",
      "type": "event"
    },
    {
      "inputs": [],
      "name": "AgoraToken",
      "outputs": [
        {
          "internalType": "uint256",
          "name": "",
          "type": "uint256"
        }
      ],
      "stateMutability": "view",
      "type": "function"
    },
    {
      "inputs": [
        {
          "internalType": "address",
          "name": "account",
          "type": "address"
        },
        {
          "internalType": "uint256",
          "name": "id",
          "type": "uint256"
        }
      ],
      "name": "balanceOf",
      "outputs": [
        {
          "internalType": "uint256",
          "name": "",
          "type": "uint256"
        }
      ],
      "stateMutability": "view",
      "type": "function"
    },
    {
      "inputs": [
        {
          "internalType": "address[]",
          "name": "accounts",
          "type": "address[]"
        },
        {
          "internalType": "uint256[]",
          "name": "ids",
          "type": "uint256[]"
        }
      ],
      "name": "balanceOfBatch",
      "outputs": [
        {
          "internalType": "uint256[]",
          "name": "",
          "type": "uint256[]"
        }
      ],
      "stateMutability": "view",
      "type": "function"
    },
    {
      "inputs": [
        {
          "internalType": "address",
          "name": "account",
          "type": "address"
        },
        {
          "internalType": "address",
          "name": "operator",
          "type": "address"
        }
      ],
      "name": "isApprovedForAll",
      "outputs": [
        {
          "internalType": "bool",
          "name": "",
          "type": "bool"
        }
      ],
      "stateMutability": "view",
      "type": "function"
    },
    {
      "inputs": [],
      "name": "owner",
      "outputs": [
        {
          "internalType": "address",
          "name": "",
          "type": "address"
        }
      ],
      "stateMutability": "view",
      "type": "function"
    },
    {
      "inputs": [],
      "name": "renounceOwnership",
      "outputs": [],
      "stateMutability": "nonpayable",
      "type": "function"
    },
    {
      "inputs": [
        {
          "internalType": "address",
          "name": "from",
          "type": "address"
        },
        {
          "internalType": "address",
          "name": "to",
          "type": "address"
        },
        {
          "internalType": "uint256[]",
          "name": "ids",
          "type": "uint256[]"
        },
        {
          "internalType": "uint256[]",
          "name": "amounts",
          "type": "uint256[]"
        },
        {
          "internalType": "bytes",
          "name": "data",
          "type": "bytes"
        }
      ],
      "name": "safeBatchTransferFrom",
      "outputs": [],
      "stateMutability": "nonpayable",
      "type": "function"
    },
    {
      "inputs": [
        {
          "internalType": "address",
          "name": "from",
          "type": "address"
        },
        {
          "internalType": "address",
          "name": "to",
          "type": "address"
        },
        {
          "internalType": "uint256",
          "name": "id",
          "type": "uint256"
        },
        {
          "internalType": "uint256",
          "name": "amount",
          "type": "uint256"
        },
        {
          "internalType": "bytes",
          "name": "data",
          "type": "bytes"
        }
      ],
      "name": "safeTransferFrom",
      "outputs": [],
      "stateMutability": "nonpayable",
      "type": "function"
    },
    {
      "inputs": [
        {
          "internalType": "address",
          "name": "operator",
          "type": "address"
        },
        {
          "internalType": "bool",
          "name": "approved",
          "type": "bool"
        }
      ],
      "name": "setApprovalForAll",
      "outputs": [],
      "stateMutability": "nonpayable",
      "type": "function"
    },
    {
      "inputs": [
        {
          "internalType": "bytes4",
          "name": "interfaceId",
          "type": "bytes4"
        }
      ],
      "name": "supportsInterface",
      "outputs": [
        {
          "internalType": "bool",
          "name": "",
          "type": "bool"
        }
      ],
      "stateMutability": "view",
      "type": "function"
    },
    {
      "inputs": [],
      "name": "testNFT",
      "outputs": [
        {
          "internalType": "uint256",
          "name": "",
          "type": "uint256"
        }
      ],
      "stateMutability": "view",
      "type": "function"
    },
    {
      "inputs": [
        {
          "internalType": "address",
          "name": "newOwner",
          "type": "address"
        }
      ],
      "name": "transferOwnership",
      "outputs": [],
      "stateMutability": "nonpayable",
      "type": "function"
    },
    {
      "inputs": [
        {
          "internalType": "uint256",
          "name": "",
          "type": "uint256"
        }
      ],
      "name": "uri",
      "outputs": [
        {
          "internalType": "string",
          "name": "",
          "type": "string"
        }
      ],
      "stateMutability": "view",
      "type": "function"
    },
    {
      "inputs": [
        {
          "internalType": "address[]",
          "name": "toArr",
          "type": "address[]"
        },
        {
          "internalType": "uint256[]",
          "name": "amountArr",
          "type": "uint256[]"
        }
      ],
      "name": "tokenMint",
      "outputs": [
        {
          "internalType": "bool",
          "name": "",
          "type": "bool"
        }
      ],
      "stateMutability": "nonpayable",
      "type": "function"
    },
    {
      "inputs": [
        {
          "internalType": "address[]",
          "name": "fromArr",
          "type": "address[]"
        },
        {
          "internalType": "uint256[]",
          "name": "amountArr",
          "type": "uint256[]"
        }
      ],
      "name": "tokenBurn",
      "outputs": [
        {
          "internalType": "bool",
          "name": "",
          "type": "bool"
        }
      ],
      "stateMutability": "nonpayable",
      "type": "function"
    },
    {
      "inputs": [
        {
          "internalType": "uint256",
          "name": "price",
          "type": "uint256"
        }
      ],
      "name": "mintNFT",
      "outputs": [
        {
          "internalType": "bool",
          "name": "",
          "type": "bool"
        }
      ],
      "stateMutability": "nonpayable",
      "type": "function"
    },
    {
      "inputs": [
        {
          "internalType": "address",
          "name": "buyer",
          "type": "address"
        },
        {
          "internalType": "uint256",
          "name": "tokenId",
          "type": "uint256"
        },
        {
          "internalType": "uint256",
          "name": "price",
          "type": "uint256"
        }
      ],
      "name": "buyNFT",
      "outputs": [
        {
          "internalType": "bool",
          "name": "",
          "type": "bool"
        }
      ],
      "stateMutability": "nonpayable",
      "type": "function"
    },
    {
      "inputs": [
        {
          "internalType": "uint256",
          "name": "tokenId",
          "type": "uint256"
        }
      ],
      "name": "ownerOfNFT",
      "outputs": [
        {
          "internalType": "address",
          "name": "",
          "type": "address"
        }
      ],
      "stateMutability": "view",
      "type": "function"
    }
  ],
  "bytecode": "0x608060405260006005553480156200001657600080fd5b5060405180606001604052806031815260200162004db66031913962000042816200015960201b60201c565b5062000063620000576200017560201b60201c565b6200017d60201b60201c565b6200007a60046200024360201b620012ce1760201c565b6200009160046200024360201b620012ce1760201c565b33600760006002815260200190815260200160002060006101000a81548173ffffffffffffffffffffffffffffffffffffffff021916908373ffffffffffffffffffffffffffffffffffffffff16021790555060646006600060028152602001908152602001600020819055506200012e3360016b033b2e3c9fd0803ce8000000604051806020016040528060008152506200025960201b60201c565b620001533360026001604051806020016040528060008152506200025960201b60201c565b62000e74565b806002908051906020019062000171929190620006ef565b5050565b600033905090565b6000600360009054906101000a900473ffffffffffffffffffffffffffffffffffffffff16905081600360006101000a81548173ffffffffffffffffffffffffffffffffffffffff021916908373ffffffffffffffffffffffffffffffffffffffff1602179055508173ffffffffffffffffffffffffffffffffffffffff168173ffffffffffffffffffffffffffffffffffffffff167f8be0079c531659141344cd1fd0a4f28419497f9722a3daafe3b4186f6b6457e060405160405180910390a35050565b6001816000016000828254019250508190555050565b600073ffffffffffffffffffffffffffffffffffffffff168473ffffffffffffffffffffffffffffffffffffffff161415620002cc576040517f08c379a0000000000000000000000000000000000000000000000000000000008152600401620002c39062000826565b60405180910390fd5b6000620002de6200017560201b60201c565b90506000620002f3856200044160201b60201c565b9050600062000308856200044160201b60201c565b90506200032183600089858589620004c260201b60201c565b8460008088815260200190815260200160002060008973ffffffffffffffffffffffffffffffffffffffff1673ffffffffffffffffffffffffffffffffffffffff168152602001908152602001600020600082825462000382919062000881565b925050819055508673ffffffffffffffffffffffffffffffffffffffff16600073ffffffffffffffffffffffffffffffffffffffff168473ffffffffffffffffffffffffffffffffffffffff167fc3d58168c5ae7397731d063d5bbf3d657854427343f4c083240f7aacaa2d0f62898960405162000402929190620008ef565b60405180910390a46200042183600089858589620004ca60201b60201c565b6200043883600089898989620004d260201b60201c565b50505050505050565b60606000600167ffffffffffffffff8111156200046357620004626200091c565b5b604051908082528060200260200182016040528015620004925781602001602082028036833780820191505090505b5090508281600081518110620004ad57620004ac6200094b565b5b60200260200101818152505080915050919050565b505050505050565b505050505050565b620004fe8473ffffffffffffffffffffffffffffffffffffffff16620006cc60201b620012e41760201c565b15620006c4578373ffffffffffffffffffffffffffffffffffffffff1663f23a6e6187878686866040518663ffffffff1660e01b81526004016200054795949392919062000a63565b6020604051808303816000875af19250505080156200058657506040513d601f19601f8201168201806040525081019062000583919062000b33565b60015b62000638576200059562000b72565b806308c379a01415620005f95750620005ad62000bcd565b80620005ba5750620005fb565b806040517f08c379a0000000000000000000000000000000000000000000000000000000008152600401620005f0919062000cbb565b60405180910390fd5b505b6040517f08c379a00000000000000000000000000000000000000000000000000000000081526004016200062f9062000d55565b60405180910390fd5b63f23a6e6160e01b7bffffffffffffffffffffffffffffffffffffffffffffffffffffffff1916817bffffffffffffffffffffffffffffffffffffffffffffffffffffffff191614620006c2576040517f08c379a0000000000000000000000000000000000000000000000000000000008152600401620006b99062000ded565b60405180910390fd5b505b505050505050565b6000808273ffffffffffffffffffffffffffffffffffffffff163b119050919050565b828054620006fd9062000e3e565b90600052602060002090601f0160209004810192826200072157600085556200076d565b82601f106200073c57805160ff19168380011785556200076d565b828001600101855582156200076d579182015b828111156200076c5782518255916020019190600101906200074f565b5b5090506200077c919062000780565b5090565b5b808211156200079b57600081600090555060010162000781565b5090565b600082825260208201905092915050565b7f455243313135353a206d696e7420746f20746865207a65726f2061646472657360008201527f7300000000000000000000000000000000000000000000000000000000000000602082015250565b60006200080e6021836200079f565b91506200081b82620007b0565b604082019050919050565b600060208201905081810360008301526200084181620007ff565b9050919050565b6000819050919050565b7f4e487b7100000000000000000000000000000000000000000000000000000000600052601160045260246000fd5b60006200088e8262000848565b91506200089b8362000848565b9250827fffffffffffffffffffffffffffffffffffffffffffffffffffffffffffffffff03821115620008d357620008d262000852565b5b828201905092915050565b620008e98162000848565b82525050565b6000604082019050620009066000830185620008de565b620009156020830184620008de565b9392505050565b7f4e487b7100000000000000000000000000000000000000000000000000000000600052604160045260246000fd5b7f4e487b7100000000000000000000000000000000000000000000000000000000600052603260045260246000fd5b600073ffffffffffffffffffffffffffffffffffffffff82169050919050565b6000620009a7826200097a565b9050919050565b620009b9816200099a565b82525050565b600081519050919050565b600082825260208201905092915050565b60005b83811015620009fb578082015181840152602081019050620009de565b8381111562000a0b576000848401525b50505050565b6000601f19601f8301169050919050565b600062000a2f82620009bf565b62000a3b8185620009ca565b935062000a4d818560208601620009db565b62000a588162000a11565b840191505092915050565b600060a08201905062000a7a6000830188620009ae565b62000a896020830187620009ae565b62000a986040830186620008de565b62000aa76060830185620008de565b818103608083015262000abb818462000a22565b90509695505050505050565b6000604051905090565b600080fd5b60007fffffffff0000000000000000000000000000000000000000000000000000000082169050919050565b62000b0d8162000ad6565b811462000b1957600080fd5b50565b60008151905062000b2d8162000b02565b92915050565b60006020828403121562000b4c5762000b4b62000ad1565b5b600062000b5c8482850162000b1c565b91505092915050565b60008160e01c9050919050565b600060033d111562000b945760046000803e62000b9160005162000b65565b90505b90565b62000ba28262000a11565b810181811067ffffffffffffffff8211171562000bc45762000bc36200091c565b5b80604052505050565b600060443d101562000bdf5762000c6c565b62000be962000ac7565b60043d036004823e80513d602482011167ffffffffffffffff8211171562000c1357505062000c6c565b808201805167ffffffffffffffff81111562000c33575050505062000c6c565b80602083010160043d03850181111562000c5257505050505062000c6c565b62000c638260200185018662000b97565b82955050505050505b90565b600081519050919050565b600062000c878262000c6f565b62000c9381856200079f565b935062000ca5818560208601620009db565b62000cb08162000a11565b840191505092915050565b6000602082019050818103600083015262000cd7818462000c7a565b905092915050565b7f455243313135353a207472616e7366657220746f206e6f6e204552433131353560008201527f526563656976657220696d706c656d656e746572000000000000000000000000602082015250565b600062000d3d6034836200079f565b915062000d4a8262000cdf565b604082019050919050565b6000602082019050818103600083015262000d708162000d2e565b9050919050565b7f455243313135353a204552433131353552656365697665722072656a6563746560008201527f6420746f6b656e73000000000000000000000000000000000000000000000000602082015250565b600062000dd56028836200079f565b915062000de28262000d77565b604082019050919050565b6000602082019050818103600083015262000e088162000dc6565b9050919050565b7f4e487b7100000000000000000000000000000000000000000000000000000000600052602260045260246000fd5b6000600282049050600182168062000e5757607f821691505b6020821081141562000e6e5762000e6d62000e0f565b5b50919050565b613f328062000e846000396000f3fe608060405234801561001057600080fd5b50600436106101155760003560e01c80638262a35f116100a2578063cee0eb4211610071578063cee0eb4214610318578063db6c941614610348578063e985e9c514610366578063f242432a14610396578063f2fde38b146103b257610115565b80638262a35f1461027e5780638da5cb5b146102ae57806392642744146102cc578063a22cb465146102fc57610115565b80632eb2c2d6116100e95780632eb2c2d6146101da5780634e1273f4146101f657806353da6f0114610226578063715018a614610256578063774554171461026057610115565b8062fdd58e1461011a57806301ffc9a71461014a5780630e89341c1461017a5780632d8a746e146101aa575b600080fd5b610134600480360381019061012f91906124c1565b6103ce565b6040516101419190612510565b60405180910390f35b610164600480360381019061015f9190612583565b610497565b60405161017191906125cb565b60405180910390f35b610194600480360381019061018f91906125e6565b610579565b6040516101a191906126ac565b60405180910390f35b6101c460048036038101906101bf91906125e6565b61060d565b6040516101d191906126dd565b60405180910390f35b6101f460048036038101906101ef91906128f5565b61064a565b005b610210600480360381019061020b9190612a87565b6106eb565b60405161021d9190612bbd565b60405180910390f35b610240600480360381019061023b9190612bdf565b610804565b60405161024d91906125cb565b60405180910390f35b61025e610a58565b005b610268610ae0565b6040516102759190612510565b60405180910390f35b61029860048036038101906102939190612ce3565b610ae5565b6040516102a591906125cb565b60405180910390f35b6102b6610cf9565b6040516102c391906126dd565b60405180910390f35b6102e660048036038101906102e191906125e6565b610d23565b6040516102f391906125cb565b60405180910390f35b61031660048036038101906103119190612d90565b610e82565b005b610332600480360381019061032d9190612ce3565b610e98565b60405161033f91906125cb565b60405180910390f35b61035061109c565b60405161035d9190612510565b60405180910390f35b610380600480360381019061037b9190612dd0565b6110a1565b60405161038d91906125cb565b60405180910390f35b6103b060048036038101906103ab9190612e10565b611135565b005b6103cc60048036038101906103c79190612ea7565b6111d6565b005b60008073ffffffffffffffffffffffffffffffffffffffff168373ffffffffffffffffffffffffffffffffffffffff16141561043f576040517f08c379a000000000000000000000000000000000000000000000000000000000815260040161043690612f46565b60405180910390fd5b60008083815260200190815260200160002060008473ffffffffffffffffffffffffffffffffffffffff1673ffffffffffffffffffffffffffffffffffffffff16815260200190815260200160002054905092915050565b60007fd9b67a26000000000000000000000000000000000000000000000000000000007bffffffffffffffffffffffffffffffffffffffffffffffffffffffff1916827bffffffffffffffffffffffffffffffffffffffffffffffffffffffff1916148061056257507f0e89341c000000000000000000000000000000000000000000000000000000007bffffffffffffffffffffffffffffffffffffffffffffffffffffffff1916827bffffffffffffffffffffffffffffffffffffffffffffffffffffffff1916145b80610572575061057182611307565b5b9050919050565b60606002805461058890612f95565b80601f01602080910402602001604051908101604052809291908181526020018280546105b490612f95565b80156106015780601f106105d657610100808354040283529160200191610601565b820191906000526020600020905b8154815290600101906020018083116105e457829003601f168201915b50505050509050919050565b60006007600083815260200190815260200160002060009054906101000a900473ffffffffffffffffffffffffffffffffffffffff169050919050565b610652611371565b73ffffffffffffffffffffffffffffffffffffffff168573ffffffffffffffffffffffffffffffffffffffff161480610698575061069785610692611371565b6110a1565b5b6106d7576040517f08c379a00000000000000000000000000000000000000000000000000000000081526004016106ce90613039565b60405180910390fd5b6106e48585858585611379565b5050505050565b60608151835114610731576040517f08c379a0000000000000000000000000000000000000000000000000000000008152600401610728906130cb565b60405180910390fd5b6000835167ffffffffffffffff81111561074e5761074d6126fd565b5b60405190808252806020026020018201604052801561077c5781602001602082028036833780820191505090505b50905060005b84518110156107f9576107c98582815181106107a1576107a06130eb565b5b60200260200101518583815181106107bc576107bb6130eb565b5b60200260200101516103ce565b8282815181106107dc576107db6130eb565b5b602002602001018181525050806107f290613149565b9050610782565b508091505092915050565b600061080e611371565b73ffffffffffffffffffffffffffffffffffffffff1661082c610cf9565b73ffffffffffffffffffffffffffffffffffffffff1614610882576040517f08c379a0000000000000000000000000000000000000000000000000000000008152600401610879906131de565b60405180910390fd5b61088c600461169b565b8311156108ce576040517f08c379a00000000000000000000000000000000000000000000000000000000081526004016108c590613270565b60405180910390fd5b6006600084815260200190815260200160002054821015610924576040517f08c379a000000000000000000000000000000000000000000000000000000000815260040161091b906132dc565b60405180910390fd5b600061092e6116a9565b905061093c85600185611718565b600a8111610a1057610961338686600160405180602001604052806000815250611135565b826006600086815260200190815260200160002081905550846007600086815260200190815260200160002060006101000a81548173ffffffffffffffffffffffffffffffffffffffff021916908373ffffffffffffffffffffffffffffffffffffffff1602179055507fe27ae26b1b18b38f4b5f8f8ea52860363020cab672d4bc787da0be4cf62eb4d18585856040516109fe939291906132fc565b60405180910390a16001915050610a51565b7f0e96aa9dff098e49753879274e19126cae66a41497b62bd994c23865f393e94b858585604051610a43939291906132fc565b60405180910390a160009150505b9392505050565b610a60611371565b73ffffffffffffffffffffffffffffffffffffffff16610a7e610cf9565b73ffffffffffffffffffffffffffffffffffffffff1614610ad4576040517f08c379a0000000000000000000000000000000000000000000000000000000008152600401610acb906131de565b60405180910390fd5b610ade600061195f565b565b600281565b6000610aef611371565b73ffffffffffffffffffffffffffffffffffffffff16610b0d610cf9565b73ffffffffffffffffffffffffffffffffffffffff1614610b63576040517f08c379a0000000000000000000000000000000000000000000000000000000008152600401610b5a906131de565b60405180910390fd5b828290508585905014610bab576040517f08c379a0000000000000000000000000000000000000000000000000000000008152600401610ba2906133a5565b60405180910390fd5b60005b85859050811015610caf57600073ffffffffffffffffffffffffffffffffffffffff16868683818110610be457610be36130eb565b5b9050602002016020810190610bf99190612ea7565b73ffffffffffffffffffffffffffffffffffffffff161415610c1a57600080fd5b6000848483818110610c2f57610c2e6130eb565b5b9050602002013511610c4057600080fd5b610c9c868683818110610c5657610c556130eb565b5b9050602002016020810190610c6b9190612ea7565b6001868685818110610c8057610c7f6130eb565b5b9050602002013560405180602001604052806000815250611a25565b8080610ca790613149565b915050610bae565b507f0cdecc26d558f51a25c242afefd2a11e23136f9117b645dd4b87f3ca45e2eb6f85858585604051610ce594939291906134e9565b60405180910390a160019050949350505050565b6000600360009054906101000a900473ffffffffffffffffffffffffffffffffffffffff16905090565b6000610d2d611371565b73ffffffffffffffffffffffffffffffffffffffff16610d4b610cf9565b73ffffffffffffffffffffffffffffffffffffffff1614610da1576040517f08c379a0000000000000000000000000000000000000000000000000000000008152600401610d98906131de565b60405180910390fd5b610dab60046112ce565b6000610db7600461169b565b9050610dd53382600160405180602001604052806000815250611a25565b826006600083815260200190815260200160002081905550336007600083815260200190815260200160002060006101000a81548173ffffffffffffffffffffffffffffffffffffffff021916908373ffffffffffffffffffffffffffffffffffffffff1602179055507f8cef0d30ca4873649a90eb8c8020564aa8e888375491c0de28328204d267d9688184604051610e70929190613524565b60405180910390a16001915050919050565b610e94610e8d611371565b8383611bd6565b5050565b6000610ea2611371565b73ffffffffffffffffffffffffffffffffffffffff16610ec0610cf9565b73ffffffffffffffffffffffffffffffffffffffff1614610f16576040517f08c379a0000000000000000000000000000000000000000000000000000000008152600401610f0d906131de565b60405180910390fd5b828290508585905014610f5e576040517f08c379a0000000000000000000000000000000000000000000000000000000008152600401610f55906133a5565b60405180910390fd5b60005b8585905081101561105257600073ffffffffffffffffffffffffffffffffffffffff16868683818110610f9757610f966130eb565b5b9050602002016020810190610fac9190612ea7565b73ffffffffffffffffffffffffffffffffffffffff161415610fcd57600080fd5b6000848483818110610fe257610fe16130eb565b5b9050602002013511610ff357600080fd5b61103f868683818110611009576110086130eb565b5b905060200201602081019061101e9190612ea7565b6001868685818110611033576110326130eb565b5b90506020020135611718565b808061104a90613149565b915050610f61565b507fb99c7b9e6a898677d204c7ed7d5ba567391dcb29ac386a2260ca17fbbad61ec08585858560405161108894939291906134e9565b60405180910390a160019050949350505050565b600181565b6000600160008473ffffffffffffffffffffffffffffffffffffffff1673ffffffffffffffffffffffffffffffffffffffff16815260200190815260200160002060008373ffffffffffffffffffffffffffffffffffffffff1673ffffffffffffffffffffffffffffffffffffffff16815260200190815260200160002060009054906101000a900460ff16905092915050565b61113d611371565b73ffffffffffffffffffffffffffffffffffffffff168573ffffffffffffffffffffffffffffffffffffffff16148061118357506111828561117d611371565b6110a1565b5b6111c2576040517f08c379a00000000000000000000000000000000000000000000000000000000081526004016111b9906135bf565b60405180910390fd5b6111cf8585858585611d43565b5050505050565b6111de611371565b73ffffffffffffffffffffffffffffffffffffffff166111fc610cf9565b73ffffffffffffffffffffffffffffffffffffffff1614611252576040517f08c379a0000000000000000000000000000000000000000000000000000000008152600401611249906131de565b60405180910390fd5b600073ffffffffffffffffffffffffffffffffffffffff168173ffffffffffffffffffffffffffffffffffffffff1614156112c2576040517f08c379a00000000000000000000000000000000000000000000000000000000081526004016112b990613651565b60405180910390fd5b6112cb8161195f565b50565b6001816000016000828254019250508190555050565b6000808273ffffffffffffffffffffffffffffffffffffffff163b119050919050565b60007f01ffc9a7000000000000000000000000000000000000000000000000000000007bffffffffffffffffffffffffffffffffffffffffffffffffffffffff1916827bffffffffffffffffffffffffffffffffffffffffffffffffffffffff1916149050919050565b600033905090565b81518351146113bd576040517f08c379a00000000000000000000000000000000000000000000000000000000081526004016113b4906136e3565b60405180910390fd5b600073ffffffffffffffffffffffffffffffffffffffff168473ffffffffffffffffffffffffffffffffffffffff16141561142d576040517f08c379a000000000000000000000000000000000000000000000000000000000815260040161142490613775565b60405180910390fd5b6000611437611371565b9050611447818787878787611fdf565b60005b84518110156115f8576000858281518110611468576114676130eb565b5b602002602001015190506000858381518110611487576114866130eb565b5b60200260200101519050600080600084815260200190815260200160002060008b73ffffffffffffffffffffffffffffffffffffffff1673ffffffffffffffffffffffffffffffffffffffff16815260200190815260200160002054905081811015611528576040517f08c379a000000000000000000000000000000000000000000000000000000000815260040161151f90613807565b60405180910390fd5b81810360008085815260200190815260200160002060008c73ffffffffffffffffffffffffffffffffffffffff1673ffffffffffffffffffffffffffffffffffffffff168152602001908152602001600020819055508160008085815260200190815260200160002060008b73ffffffffffffffffffffffffffffffffffffffff1673ffffffffffffffffffffffffffffffffffffffff16815260200190815260200160002060008282546115dd9190613827565b92505081905550505050806115f190613149565b905061144a565b508473ffffffffffffffffffffffffffffffffffffffff168673ffffffffffffffffffffffffffffffffffffffff168273ffffffffffffffffffffffffffffffffffffffff167f4a39dc06d4c0dbc64b70af90fd698a233a518aa5d07e595d983b8c0526c8f7fb878760405161166f92919061387d565b60405180910390a4611685818787878787611fe7565b611693818787878787611fef565b505050505050565b600081600001549050919050565b600080606442446005546040516020016116c5939291906138d5565b6040516020818303038152906040528051906020012060001c6116e89190613941565b90506001816116f79190613827565b90506005600081548092919061170c90613149565b91905055508091505090565b600073ffffffffffffffffffffffffffffffffffffffff168373ffffffffffffffffffffffffffffffffffffffff161415611788576040517f08c379a000000000000000000000000000000000000000000000000000000000815260040161177f906139e4565b60405180910390fd5b6000611792611371565b9050600061179f846121c7565b905060006117ac846121c7565b90506117cc83876000858560405180602001604052806000815250611fdf565b600080600087815260200190815260200160002060008873ffffffffffffffffffffffffffffffffffffffff1673ffffffffffffffffffffffffffffffffffffffff16815260200190815260200160002054905084811015611863576040517f08c379a000000000000000000000000000000000000000000000000000000000815260040161185a90613a76565b60405180910390fd5b84810360008088815260200190815260200160002060008973ffffffffffffffffffffffffffffffffffffffff1673ffffffffffffffffffffffffffffffffffffffff16815260200190815260200160002081905550600073ffffffffffffffffffffffffffffffffffffffff168773ffffffffffffffffffffffffffffffffffffffff168573ffffffffffffffffffffffffffffffffffffffff167fc3d58168c5ae7397731d063d5bbf3d657854427343f4c083240f7aacaa2d0f628989604051611930929190613524565b60405180910390a461195684886000868660405180602001604052806000815250611fe7565b50505050505050565b6000600360009054906101000a900473ffffffffffffffffffffffffffffffffffffffff16905081600360006101000a81548173ffffffffffffffffffffffffffffffffffffffff021916908373ffffffffffffffffffffffffffffffffffffffff1602179055508173ffffffffffffffffffffffffffffffffffffffff168173ffffffffffffffffffffffffffffffffffffffff167f8be0079c531659141344cd1fd0a4f28419497f9722a3daafe3b4186f6b6457e060405160405180910390a35050565b600073ffffffffffffffffffffffffffffffffffffffff168473ffffffffffffffffffffffffffffffffffffffff161415611a95576040517f08c379a0000000000000000000000000000000000000000000000000000000008152600401611a8c90613b08565b60405180910390fd5b6000611a9f611371565b90506000611aac856121c7565b90506000611ab9856121c7565b9050611aca83600089858589611fdf565b8460008088815260200190815260200160002060008973ffffffffffffffffffffffffffffffffffffffff1673ffffffffffffffffffffffffffffffffffffffff1681526020019081526020016000206000828254611b299190613827565b925050819055508673ffffffffffffffffffffffffffffffffffffffff16600073ffffffffffffffffffffffffffffffffffffffff168473ffffffffffffffffffffffffffffffffffffffff167fc3d58168c5ae7397731d063d5bbf3d657854427343f4c083240f7aacaa2d0f628989604051611ba7929190613524565b60405180910390a4611bbe83600089858589611fe7565b611bcd83600089898989612241565b50505050505050565b8173ffffffffffffffffffffffffffffffffffffffff168373ffffffffffffffffffffffffffffffffffffffff161415611c45576040517f08c379a0000000000000000000000000000000000000000000000000000000008152600401611c3c90613b9a565b60405180910390fd5b80600160008573ffffffffffffffffffffffffffffffffffffffff1673ffffffffffffffffffffffffffffffffffffffff16815260200190815260200160002060008473ffffffffffffffffffffffffffffffffffffffff1673ffffffffffffffffffffffffffffffffffffffff16815260200190815260200160002060006101000a81548160ff0219169083151502179055508173ffffffffffffffffffffffffffffffffffffffff168373ffffffffffffffffffffffffffffffffffffffff167f17307eab39ab6107e8899845ad3d59bd9653f200f220920489ca2b5937696c3183604051611d3691906125cb565b60405180910390a3505050565b600073ffffffffffffffffffffffffffffffffffffffff168473ffffffffffffffffffffffffffffffffffffffff161415611db3576040517f08c379a0000000000000000000000000000000000000000000000000000000008152600401611daa90613775565b60405180910390fd5b6000611dbd611371565b90506000611dca856121c7565b90506000611dd7856121c7565b9050611de7838989858589611fdf565b600080600088815260200190815260200160002060008a73ffffffffffffffffffffffffffffffffffffffff1673ffffffffffffffffffffffffffffffffffffffff16815260200190815260200160002054905085811015611e7e576040517f08c379a0000000000000000000000000000000000000000000000000000000008152600401611e7590613807565b60405180910390fd5b85810360008089815260200190815260200160002060008b73ffffffffffffffffffffffffffffffffffffffff1673ffffffffffffffffffffffffffffffffffffffff168152602001908152602001600020819055508560008089815260200190815260200160002060008a73ffffffffffffffffffffffffffffffffffffffff1673ffffffffffffffffffffffffffffffffffffffff1681526020019081526020016000206000828254611f339190613827565b925050819055508773ffffffffffffffffffffffffffffffffffffffff168973ffffffffffffffffffffffffffffffffffffffff168573ffffffffffffffffffffffffffffffffffffffff167fc3d58168c5ae7397731d063d5bbf3d657854427343f4c083240f7aacaa2d0f628a8a604051611fb0929190613524565b60405180910390a4611fc6848a8a86868a611fe7565b611fd4848a8a8a8a8a612241565b505050505050505050565b505050505050565b505050505050565b61200e8473ffffffffffffffffffffffffffffffffffffffff166112e4565b156121bf578373ffffffffffffffffffffffffffffffffffffffff1663bc197c8187878686866040518663ffffffff1660e01b8152600401612054959493929190613c0f565b6020604051808303816000875af192505050801561209057506040513d601f19601f8201168201806040525081019061208d9190613c8c565b60015b6121365761209c613cc6565b806308c379a014156120f957506120b1613ce8565b806120bc57506120fb565b806040517f08c379a00000000000000000000000000000000000000000000000000000000081526004016120f091906126ac565b60405180910390fd5b505b6040517f08c379a000000000000000000000000000000000000000000000000000000000815260040161212d90613df0565b60405180910390fd5b63bc197c8160e01b7bffffffffffffffffffffffffffffffffffffffffffffffffffffffff1916817bffffffffffffffffffffffffffffffffffffffffffffffffffffffff1916146121bd576040517f08c379a00000000000000000000000000000000000000000000000000000000081526004016121b490613e82565b60405180910390fd5b505b505050505050565b60606000600167ffffffffffffffff8111156121e6576121e56126fd565b5b6040519080825280602002602001820160405280156122145781602001602082028036833780820191505090505b509050828160008151811061222c5761222b6130eb565b5b60200260200101818152505080915050919050565b6122608473ffffffffffffffffffffffffffffffffffffffff166112e4565b15612411578373ffffffffffffffffffffffffffffffffffffffff1663f23a6e6187878686866040518663ffffffff1660e01b81526004016122a6959493929190613ea2565b6020604051808303816000875af19250505080156122e257506040513d601f19601f820116820180604052508101906122df9190613c8c565b60015b612388576122ee613cc6565b806308c379a0141561234b5750612303613ce8565b8061230e575061234d565b806040517f08c379a000000000000000000000000000000000000000000000000000000000815260040161234291906126ac565b60405180910390fd5b505b6040517f08c379a000000000000000000000000000000000000000000000000000000000815260040161237f90613df0565b60405180910390fd5b63f23a6e6160e01b7bffffffffffffffffffffffffffffffffffffffffffffffffffffffff1916817bffffffffffffffffffffffffffffffffffffffffffffffffffffffff19161461240f576040517f08c379a000000000000000000000000000000000000000000000000000000000815260040161240690613e82565b60405180910390fd5b505b505050505050565b6000604051905090565b600080fd5b600080fd5b600073ffffffffffffffffffffffffffffffffffffffff82169050919050565b60006124588261242d565b9050919050565b6124688161244d565b811461247357600080fd5b50565b6000813590506124858161245f565b92915050565b6000819050919050565b61249e8161248b565b81146124a957600080fd5b50565b6000813590506124bb81612495565b92915050565b600080604083850312156124d8576124d7612423565b5b60006124e685828601612476565b92505060206124f7858286016124ac565b9150509250929050565b61250a8161248b565b82525050565b60006020820190506125256000830184612501565b92915050565b60007fffffffff0000000000000000000000000000000000000000000000000000000082169050919050565b6125608161252b565b811461256b57600080fd5b50565b60008135905061257d81612557565b92915050565b60006020828403121561259957612598612423565b5b60006125a78482850161256e565b91505092915050565b60008115159050919050565b6125c5816125b0565b82525050565b60006020820190506125e060008301846125bc565b92915050565b6000602082840312156125fc576125fb612423565b5b600061260a848285016124ac565b91505092915050565b600081519050919050565b600082825260208201905092915050565b60005b8381101561264d578082015181840152602081019050612632565b8381111561265c576000848401525b50505050565b6000601f19601f8301169050919050565b600061267e82612613565b612688818561261e565b935061269881856020860161262f565b6126a181612662565b840191505092915050565b600060208201905081810360008301526126c68184612673565b905092915050565b6126d78161244d565b82525050565b60006020820190506126f260008301846126ce565b92915050565b600080fd5b7f4e487b7100000000000000000000000000000000000000000000000000000000600052604160045260246000fd5b61273582612662565b810181811067ffffffffffffffff82111715612754576127536126fd565b5b80604052505050565b6000612767612419565b9050612773828261272c565b919050565b600067ffffffffffffffff821115612793576127926126fd565b5b602082029050602081019050919050565b600080fd5b60006127bc6127b784612778565b61275d565b905080838252602082019050602084028301858111156127df576127de6127a4565b5b835b8181101561280857806127f488826124ac565b8452602084019350506020810190506127e1565b5050509392505050565b600082601f830112612827576128266126f8565b5b81356128378482602086016127a9565b91505092915050565b600080fd5b600067ffffffffffffffff8211156128605761285f6126fd565b5b61286982612662565b9050602081019050919050565b82818337600083830152505050565b600061289861289384612845565b61275d565b9050828152602081018484840111156128b4576128b3612840565b5b6128bf848285612876565b509392505050565b600082601f8301126128dc576128db6126f8565b5b81356128ec848260208601612885565b91505092915050565b600080600080600060a0868803121561291157612910612423565b5b600061291f88828901612476565b955050602061293088828901612476565b945050604086013567ffffffffffffffff81111561295157612950612428565b5b61295d88828901612812565b935050606086013567ffffffffffffffff81111561297e5761297d612428565b5b61298a88828901612812565b925050608086013567ffffffffffffffff8111156129ab576129aa612428565b5b6129b7888289016128c7565b9150509295509295909350565b600067ffffffffffffffff8211156129df576129de6126fd565b5b602082029050602081019050919050565b6000612a036129fe846129c4565b61275d565b90508083825260208201905060208402830185811115612a2657612a256127a4565b5b835b81811015612a4f5780612a3b8882612476565b845260208401935050602081019050612a28565b5050509392505050565b600082601f830112612a6e57612a6d6126f8565b5b8135612a7e8482602086016129f0565b91505092915050565b60008060408385031215612a9e57612a9d612423565b5b600083013567ffffffffffffffff811115612abc57612abb612428565b5b612ac885828601612a59565b925050602083013567ffffffffffffffff811115612ae957612ae8612428565b5b612af585828601612812565b9150509250929050565b600081519050919050565b600082825260208201905092915050565b6000819050602082019050919050565b612b348161248b565b82525050565b6000612b468383612b2b565b60208301905092915050565b6000602082019050919050565b6000612b6a82612aff565b612b748185612b0a565b9350612b7f83612b1b565b8060005b83811015612bb0578151612b978882612b3a565b9750612ba283612b52565b925050600181019050612b83565b5085935050505092915050565b60006020820190508181036000830152612bd78184612b5f565b905092915050565b600080600060608486031215612bf857612bf7612423565b5b6000612c0686828701612476565b9350506020612c17868287016124ac565b9250506040612c28868287016124ac565b9150509250925092565b600080fd5b60008083601f840112612c4d57612c4c6126f8565b5b8235905067ffffffffffffffff811115612c6a57612c69612c32565b5b602083019150836020820283011115612c8657612c856127a4565b5b9250929050565b60008083601f840112612ca357612ca26126f8565b5b8235905067ffffffffffffffff811115612cc057612cbf612c32565b5b602083019150836020820283011115612cdc57612cdb6127a4565b5b9250929050565b60008060008060408587031215612cfd57612cfc612423565b5b600085013567ffffffffffffffff811115612d1b57612d1a612428565b5b612d2787828801612c37565b9450945050602085013567ffffffffffffffff811115612d4a57612d49612428565b5b612d5687828801612c8d565b925092505092959194509250565b612d6d816125b0565b8114612d7857600080fd5b50565b600081359050612d8a81612d64565b92915050565b60008060408385031215612da757612da6612423565b5b6000612db585828601612476565b9250506020612dc685828601612d7b565b9150509250929050565b60008060408385031215612de757612de6612423565b5b6000612df585828601612476565b9250506020612e0685828601612476565b9150509250929050565b600080600080600060a08688031215612e2c57612e2b612423565b5b6000612e3a88828901612476565b9550506020612e4b88828901612476565b9450506040612e5c888289016124ac565b9350506060612e6d888289016124ac565b925050608086013567ffffffffffffffff811115612e8e57612e8d612428565b5b612e9a888289016128c7565b9150509295509295909350565b600060208284031215612ebd57612ebc612423565b5b6000612ecb84828501612476565b91505092915050565b7f455243313135353a2062616c616e636520717565727920666f7220746865207a60008201527f65726f2061646472657373000000000000000000000000000000000000000000602082015250565b6000612f30602b8361261e565b9150612f3b82612ed4565b604082019050919050565b60006020820190508181036000830152612f5f81612f23565b9050919050565b7f4e487b7100000000000000000000000000000000000000000000000000000000600052602260045260246000fd5b60006002820490506001821680612fad57607f821691505b60208210811415612fc157612fc0612f66565b5b50919050565b7f455243313135353a207472616e736665722063616c6c6572206973206e6f742060008201527f6f776e6572206e6f7220617070726f7665640000000000000000000000000000602082015250565b600061302360328361261e565b915061302e82612fc7565b604082019050919050565b6000602082019050818103600083015261305281613016565b9050919050565b7f455243313135353a206163636f756e747320616e6420696473206c656e67746860008201527f206d69736d617463680000000000000000000000000000000000000000000000602082015250565b60006130b560298361261e565b91506130c082613059565b604082019050919050565b600060208201905081810360008301526130e4816130a8565b9050919050565b7f4e487b7100000000000000000000000000000000000000000000000000000000600052603260045260246000fd5b7f4e487b7100000000000000000000000000000000000000000000000000000000600052601160045260246000fd5b60006131548261248b565b91507fffffffffffffffffffffffffffffffffffffffffffffffffffffffffffffffff8214156131875761318661311a565b5b600182019050919050565b7f4f776e61626c653a2063616c6c6572206973206e6f7420746865206f776e6572600082015250565b60006131c860208361261e565b91506131d382613192565b602082019050919050565b600060208201905081810360008301526131f7816131bb565b9050919050565b7f436f72726573706f6e64696e6720746f6b656e20646f6573206e6f742065786960008201527f7374000000000000000000000000000000000000000000000000000000000000602082015250565b600061325a60228361261e565b9150613265826131fe565b604082019050919050565b600060208201905081810360008301526132898161324d565b9050919050565b7f4e6f7420656e6f756768207061796d656e740000000000000000000000000000600082015250565b60006132c660128361261e565b91506132d182613290565b602082019050919050565b600060208201905081810360008301526132f5816132b9565b9050919050565b600060608201905061331160008301866126ce565b61331e6020830185612501565b61332b6040830184612501565b949350505050565b7f726563656976657220616e6420616d6f756e74206172726179206c656e67746860008201527f20697320646966666572656e7400000000000000000000000000000000000000602082015250565b600061338f602d8361261e565b915061339a82613333565b604082019050919050565b600060208201905081810360008301526133be81613382565b9050919050565b600082825260208201905092915050565b6000819050919050565b6133e98161244d565b82525050565b60006133fb83836133e0565b60208301905092915050565b60006134166020840184612476565b905092915050565b6000602082019050919050565b600061343783856133c5565b9350613442826133d6565b8060005b8581101561347b576134588284613407565b61346288826133ef565b975061346d8361341e565b925050600181019050613446565b5085925050509392505050565b600080fd5b60006134998385612b0a565b93507f07ffffffffffffffffffffffffffffffffffffffffffffffffffffffffffffff8311156134cc576134cb613488565b5b6020830292506134dd838584612876565b82840190509392505050565b6000604082019050818103600083015261350481868861342b565b9050818103602083015261351981848661348d565b905095945050505050565b60006040820190506135396000830185612501565b6135466020830184612501565b9392505050565b7f455243313135353a2063616c6c6572206973206e6f74206f776e6572206e6f7260008201527f20617070726f7665640000000000000000000000000000000000000000000000602082015250565b60006135a960298361261e565b91506135b48261354d565b604082019050919050565b600060208201905081810360008301526135d88161359c565b9050919050565b7f4f776e61626c653a206e6577206f776e657220697320746865207a65726f206160008201527f6464726573730000000000000000000000000000000000000000000000000000602082015250565b600061363b60268361261e565b9150613646826135df565b604082019050919050565b6000602082019050818103600083015261366a8161362e565b9050919050565b7f455243313135353a2069647320616e6420616d6f756e7473206c656e6774682060008201527f6d69736d61746368000000000000000000000000000000000000000000000000602082015250565b60006136cd60288361261e565b91506136d882613671565b604082019050919050565b600060208201905081810360008301526136fc816136c0565b9050919050565b7f455243313135353a207472616e7366657220746f20746865207a65726f20616460008201527f6472657373000000000000000000000000000000000000000000000000000000602082015250565b600061375f60258361261e565b915061376a82613703565b604082019050919050565b6000602082019050818103600083015261378e81613752565b9050919050565b7f455243313135353a20696e73756666696369656e742062616c616e636520666f60008201527f72207472616e7366657200000000000000000000000000000000000000000000602082015250565b60006137f1602a8361261e565b91506137fc82613795565b604082019050919050565b60006020820190508181036000830152613820816137e4565b9050919050565b60006138328261248b565b915061383d8361248b565b9250827fffffffffffffffffffffffffffffffffffffffffffffffffffffffffffffffff038211156138725761387161311a565b5b828201905092915050565b600060408201905081810360008301526138978185612b5f565b905081810360208301526138ab8184612b5f565b90509392505050565b6000819050919050565b6138cf6138ca8261248b565b6138b4565b82525050565b60006138e182866138be565b6020820191506138f182856138be565b60208201915061390182846138be565b602082019150819050949350505050565b7f4e487b7100000000000000000000000000000000000000000000000000000000600052601260045260246000fd5b600061394c8261248b565b91506139578361248b565b92508261396757613966613912565b5b828206905092915050565b7f455243313135353a206275726e2066726f6d20746865207a65726f206164647260008201527f6573730000000000000000000000000000000000000000000000000000000000602082015250565b60006139ce60238361261e565b91506139d982613972565b604082019050919050565b600060208201905081810360008301526139fd816139c1565b9050919050565b7f455243313135353a206275726e20616d6f756e7420657863656564732062616c60008201527f616e636500000000000000000000000000000000000000000000000000000000602082015250565b6000613a6060248361261e565b9150613a6b82613a04565b604082019050919050565b60006020820190508181036000830152613a8f81613a53565b9050919050565b7f455243313135353a206d696e7420746f20746865207a65726f2061646472657360008201527f7300000000000000000000000000000000000000000000000000000000000000602082015250565b6000613af260218361261e565b9150613afd82613a96565b604082019050919050565b60006020820190508181036000830152613b2181613ae5565b9050919050565b7f455243313135353a2073657474696e6720617070726f76616c2073746174757360008201527f20666f722073656c660000000000000000000000000000000000000000000000602082015250565b6000613b8460298361261e565b9150613b8f82613b28565b604082019050919050565b60006020820190508181036000830152613bb381613b77565b9050919050565b600081519050919050565b600082825260208201905092915050565b6000613be182613bba565b613beb8185613bc5565b9350613bfb81856020860161262f565b613c0481612662565b840191505092915050565b600060a082019050613c2460008301886126ce565b613c3160208301876126ce565b8181036040830152613c438186612b5f565b90508181036060830152613c578185612b5f565b90508181036080830152613c6b8184613bd6565b90509695505050505050565b600081519050613c8681612557565b92915050565b600060208284031215613ca257613ca1612423565b5b6000613cb084828501613c77565b91505092915050565b60008160e01c9050919050565b600060033d1115613ce55760046000803e613ce2600051613cb9565b90505b90565b600060443d1015613cf857613d7b565b613d00612419565b60043d036004823e80513d602482011167ffffffffffffffff82111715613d28575050613d7b565b808201805167ffffffffffffffff811115613d465750505050613d7b565b80602083010160043d038501811115613d63575050505050613d7b565b613d728260200185018661272c565b82955050505050505b90565b7f455243313135353a207472616e7366657220746f206e6f6e204552433131353560008201527f526563656976657220696d706c656d656e746572000000000000000000000000602082015250565b6000613dda60348361261e565b9150613de582613d7e565b604082019050919050565b60006020820190508181036000830152613e0981613dcd565b9050919050565b7f455243313135353a204552433131353552656365697665722072656a6563746560008201527f6420746f6b656e73000000000000000000000000000000000000000000000000602082015250565b6000613e6c60288361261e565b9150613e7782613e10565b604082019050919050565b60006020820190508181036000830152613e9b81613e5f565b9050919050565b600060a082019050613eb760008301886126ce565b613ec460208301876126ce565b613ed16040830186612501565b613ede6060830185612501565b8181036080830152613ef08184613bd6565b9050969550505050505056fea2646970667358221220d8b9c5e0ec2e4f3f6e36222e7ad10a2520542c3943feb69970cee8f926908edc64736f6c634300080a003368747470733a2f2f6e66746a736f6e313132332e6865726f6b756170702e636f6d2f61676f72612f7b746f6b656e49647d",
  "immutableReferences": {},
  "source": "// SPDX-License-Identifier: MIT\npragma solidity ^0.8.10;\n\nimport \"openzeppelin-solidity/contracts/token/ERC1155/ERC1155.sol\";\nimport \"openzeppelin-solidity/contracts/access/Ownable.sol\";\nimport \"openzeppelin-solidity/contracts/utils/Counters.sol\";\n\ncontract AgoraTokens is ERC1155, Ownable {\n    using Counters for Counters.Counter;\n    Counters.Counter private _tokenIds;\n    uint256 public constant AgoraToken = 1;\n    uint256 public constant testNFT = 2;\n    uint256 internal nonce = 0;\n    mapping (uint256 => uint256) private tokenPrice;\n    mapping (uint256 => address) private tokenOwner;\n\n\n    \n    event BurnedToken(address[] fromArr, uint256[] amount);\n    event MintedToken(address[] toArr, uint256[] amount);\n    event MintedNFT(uint256 tokenId, uint256 price);\n    event UserNFTBuy(address buyer, uint256 tokenId, uint256 price);\n    event UserNFTFail(address buyer, uint256 tokenId, uint256 price);\n    \n\n    constructor() ERC1155(\"https://nftjson1123.herokuapp.com/agora/{tokenId}\") {\n        _tokenIds.increment();\n        _tokenIds.increment();\n        tokenOwner[2] = msg.sender;\n        tokenPrice[2] = 100;\n        _mint(msg.sender, AgoraToken, 10**27, \"\");\n        _mint(msg.sender, testNFT, 1, \"\");\n    }\n\n    function tokenMint(address[] calldata toArr, uint256[] calldata amountArr) public onlyOwner returns (bool){\n        require(toArr.length == amountArr.length, \"receiver and amount array length is different\");\n        for(uint256 i = 0; i < toArr.length; i++) {\n            require(toArr[i] != address(0x0));\n            require(amountArr[i] > 0);\n            _mint(toArr[i], AgoraToken, amountArr[i], \"\");\n            }\n        emit MintedToken(toArr, amountArr);\n        return true;\n    }\n\n    function tokenBurn (address[] calldata fromArr, uint256[] calldata amountArr) public onlyOwner returns (bool){\n        require(fromArr.length == amountArr.length, \"receiver and amount array length is different\");\n        for(uint256 i = 0; i < fromArr.length; i++) {\n            require(fromArr[i] != address(0x0));\n            require(amountArr[i] > 0);\n            _burn(fromArr[i], AgoraToken, amountArr[i]);\n            \n        }\n        emit BurnedToken(fromArr, amountArr);\n        return true;\n    }\n\n    function mintNFT (uint256 price) external onlyOwner returns(bool){\n        _tokenIds.increment();\n        uint256 newItemId = _tokenIds.current();\n        _mint(msg.sender, newItemId, 1, \"\");\n        tokenPrice[newItemId] = price;\n        tokenOwner[newItemId] = msg.sender;\n\n        emit MintedNFT(newItemId, price);\n        return true;\n    }\n\n    function buyNFT (address buyer, uint256 tokenId, uint256 price) external onlyOwner returns(bool){\n        require(tokenId <= _tokenIds.current(), \"Corresponding token does not exist\");\n        require(price >= tokenPrice[tokenId], \"Not enough payment\");\n         uint256 diceResult = _randomDice();\n        _burn(buyer, AgoraToken, price);\n\n         if(diceResult <=10) {\n        safeTransferFrom(msg.sender, buyer, tokenId, 1, \"\");\n        tokenPrice[tokenId] = price;\n        tokenOwner[tokenId] = buyer;\n        emit UserNFTBuy(buyer, tokenId, price);\n\n        return true;\n         }\n         else{\n        emit UserNFTFail(buyer, tokenId, price);\n        return false;\n         }\n    }\n    \n    function ownerOfNFT (uint256 tokenId) external view returns(address){\n        return tokenOwner[tokenId];\n    }\n\n\n    // ,   \n    function _randomDice () internal returns (uint256) {\n        uint256 randomNumber = uint256(keccak256(abi.encodePacked(block.timestamp,block.difficulty,nonce))) % 100;\n        randomNumber = randomNumber + 1;\n        nonce++;\n\n        return randomNumber;\n    }\n\n\n}",
  "sourcePath": "/Users/yooseungjun/Desktop/blockchain/Project-Agora_server/truffle/contracts/ERC1155.sol",
  "compiler": {
    "name": "solc",
    "version": "0.8.10+commit.fc410830.Emscripten.clang"
  },
  "schemaVersion": "3.4.7",
  "updatedAt": "2022-07-20T07:20:53.153Z",
  "devdoc": {
    "kind": "dev",
    "methods": {
      "balanceOf(address,uint256)": {
        "details": "See {IERC1155-balanceOf}. Requirements: - `account` cannot be the zero address."
      },
      "balanceOfBatch(address[],uint256[])": {
        "details": "See {IERC1155-balanceOfBatch}. Requirements: - `accounts` and `ids` must have the same length."
      },
      "isApprovedForAll(address,address)": {
        "details": "See {IERC1155-isApprovedForAll}."
      },
      "owner()": {
        "details": "Returns the address of the current owner."
      },
      "renounceOwnership()": {
        "details": "Leaves the contract without owner. It will not be possible to call `onlyOwner` functions anymore. Can only be called by the current owner. NOTE: Renouncing ownership will leave the contract without an owner, thereby removing any functionality that is only available to the owner."
      },
      "safeBatchTransferFrom(address,address,uint256[],uint256[],bytes)": {
        "details": "See {IERC1155-safeBatchTransferFrom}."
      },
      "safeTransferFrom(address,address,uint256,uint256,bytes)": {
        "details": "See {IERC1155-safeTransferFrom}."
      },
      "setApprovalForAll(address,bool)": {
        "details": "See {IERC1155-setApprovalForAll}."
      },
      "supportsInterface(bytes4)": {
        "details": "See {IERC165-supportsInterface}."
      },
      "transferOwnership(address)": {
        "details": "Transfers ownership of the contract to a new account (`newOwner`). Can only be called by the current owner."
      },
      "uri(uint256)": {
        "details": "See {IERC1155MetadataURI-uri}. This implementation returns the same URI for *all* token types. It relies on the token type ID substitution mechanism https://eips.ethereum.org/EIPS/eip-1155#metadata[defined in the EIP]. Clients calling this function must replace the `\\{id\\}` substring with the actual token type ID."
      }
    },
    "version": 1
  },
  "userdoc": {
    "kind": "user",
    "methods": {},
    "version": 1
  }
}