{
  "contractName": "AgoraTokens",
  "abi": [
    {
      "inputs": [],
      "stateMutability": "nonpayable",
      "type": "constructor"
    },
    {
      "anonymous": false,
      "inputs": [
        {
          "indexed": true,
          "internalType": "address",
          "name": "account",
          "type": "address"
        },
        {
          "indexed": true,
          "internalType": "address",
          "name": "operator",
          "type": "address"
        },
        {
          "indexed": false,
          "internalType": "bool",
          "name": "approved",
          "type": "bool"
        }
      ],
      "name": "ApprovalForAll",
      "type": "event"
    },
    {
      "anonymous": false,
      "inputs": [
        {
          "indexed": false,
          "internalType": "address[]",
          "name": "fromArr",
          "type": "address[]"
        },
        {
          "indexed": false,
          "internalType": "uint256[]",
          "name": "amount",
          "type": "uint256[]"
        }
      ],
      "name": "BurnedToken",
      "type": "event"
    },
    {
      "anonymous": false,
      "inputs": [
        {
          "indexed": false,
          "internalType": "uint256",
          "name": "tokenId",
          "type": "uint256"
        },
        {
          "indexed": false,
          "internalType": "uint256",
          "name": "price",
          "type": "uint256"
        }
      ],
      "name": "MintedNFT",
      "type": "event"
    },
    {
      "anonymous": false,
      "inputs": [
        {
          "indexed": false,
          "internalType": "address[]",
          "name": "toArr",
          "type": "address[]"
        },
        {
          "indexed": false,
          "internalType": "uint256[]",
          "name": "amount",
          "type": "uint256[]"
        }
      ],
      "name": "MintedToken",
      "type": "event"
    },
    {
      "anonymous": false,
      "inputs": [
        {
          "indexed": true,
          "internalType": "address",
          "name": "previousOwner",
          "type": "address"
        },
        {
          "indexed": true,
          "internalType": "address",
          "name": "newOwner",
          "type": "address"
        }
      ],
      "name": "OwnershipTransferred",
      "type": "event"
    },
    {
      "anonymous": false,
      "inputs": [
        {
          "indexed": true,
          "internalType": "address",
          "name": "operator",
          "type": "address"
        },
        {
          "indexed": true,
          "internalType": "address",
          "name": "from",
          "type": "address"
        },
        {
          "indexed": true,
          "internalType": "address",
          "name": "to",
          "type": "address"
        },
        {
          "indexed": false,
          "internalType": "uint256[]",
          "name": "ids",
          "type": "uint256[]"
        },
        {
          "indexed": false,
          "internalType": "uint256[]",
          "name": "values",
          "type": "uint256[]"
        }
      ],
      "name": "TransferBatch",
      "type": "event"
    },
    {
      "anonymous": false,
      "inputs": [
        {
          "indexed": true,
          "internalType": "address",
          "name": "operator",
          "type": "address"
        },
        {
          "indexed": true,
          "internalType": "address",
          "name": "from",
          "type": "address"
        },
        {
          "indexed": true,
          "internalType": "address",
          "name": "to",
          "type": "address"
        },
        {
          "indexed": false,
          "internalType": "uint256",
          "name": "id",
          "type": "uint256"
        },
        {
          "indexed": false,
          "internalType": "uint256",
          "name": "value",
          "type": "uint256"
        }
      ],
      "name": "TransferSingle",
      "type": "event"
    },
    {
      "anonymous": false,
      "inputs": [
        {
          "indexed": false,
          "internalType": "string",
          "name": "value",
          "type": "string"
        },
        {
          "indexed": true,
          "internalType": "uint256",
          "name": "id",
          "type": "uint256"
        }
      ],
      "name": "URI",
      "type": "event"
    },
    {
      "anonymous": false,
      "inputs": [
        {
          "indexed": false,
          "internalType": "address",
          "name": "buyer",
          "type": "address"
        },
        {
          "indexed": false,
          "internalType": "uint256",
          "name": "tokenId",
          "type": "uint256"
        },
        {
          "indexed": false,
          "internalType": "uint256",
          "name": "price",
          "type": "uint256"
        }
      ],
      "name": "UserNFTBuy",
      "type": "event"
    },
    {
      "inputs": [],
      "name": "AgoraToken",
      "outputs": [
        {
          "internalType": "uint256",
          "name": "",
          "type": "uint256"
        }
      ],
      "stateMutability": "view",
      "type": "function"
    },
    {
      "inputs": [
        {
          "internalType": "address",
          "name": "account",
          "type": "address"
        },
        {
          "internalType": "uint256",
          "name": "id",
          "type": "uint256"
        }
      ],
      "name": "balanceOf",
      "outputs": [
        {
          "internalType": "uint256",
          "name": "",
          "type": "uint256"
        }
      ],
      "stateMutability": "view",
      "type": "function"
    },
    {
      "inputs": [
        {
          "internalType": "address[]",
          "name": "accounts",
          "type": "address[]"
        },
        {
          "internalType": "uint256[]",
          "name": "ids",
          "type": "uint256[]"
        }
      ],
      "name": "balanceOfBatch",
      "outputs": [
        {
          "internalType": "uint256[]",
          "name": "",
          "type": "uint256[]"
        }
      ],
      "stateMutability": "view",
      "type": "function"
    },
    {
      "inputs": [
        {
          "internalType": "address",
          "name": "account",
          "type": "address"
        },
        {
          "internalType": "address",
          "name": "operator",
          "type": "address"
        }
      ],
      "name": "isApprovedForAll",
      "outputs": [
        {
          "internalType": "bool",
          "name": "",
          "type": "bool"
        }
      ],
      "stateMutability": "view",
      "type": "function"
    },
    {
      "inputs": [],
      "name": "owner",
      "outputs": [
        {
          "internalType": "address",
          "name": "",
          "type": "address"
        }
      ],
      "stateMutability": "view",
      "type": "function"
    },
    {
      "inputs": [],
      "name": "renounceOwnership",
      "outputs": [],
      "stateMutability": "nonpayable",
      "type": "function"
    },
    {
      "inputs": [
        {
          "internalType": "address",
          "name": "from",
          "type": "address"
        },
        {
          "internalType": "address",
          "name": "to",
          "type": "address"
        },
        {
          "internalType": "uint256[]",
          "name": "ids",
          "type": "uint256[]"
        },
        {
          "internalType": "uint256[]",
          "name": "amounts",
          "type": "uint256[]"
        },
        {
          "internalType": "bytes",
          "name": "data",
          "type": "bytes"
        }
      ],
      "name": "safeBatchTransferFrom",
      "outputs": [],
      "stateMutability": "nonpayable",
      "type": "function"
    },
    {
      "inputs": [
        {
          "internalType": "address",
          "name": "from",
          "type": "address"
        },
        {
          "internalType": "address",
          "name": "to",
          "type": "address"
        },
        {
          "internalType": "uint256",
          "name": "id",
          "type": "uint256"
        },
        {
          "internalType": "uint256",
          "name": "amount",
          "type": "uint256"
        },
        {
          "internalType": "bytes",
          "name": "data",
          "type": "bytes"
        }
      ],
      "name": "safeTransferFrom",
      "outputs": [],
      "stateMutability": "nonpayable",
      "type": "function"
    },
    {
      "inputs": [
        {
          "internalType": "address",
          "name": "operator",
          "type": "address"
        },
        {
          "internalType": "bool",
          "name": "approved",
          "type": "bool"
        }
      ],
      "name": "setApprovalForAll",
      "outputs": [],
      "stateMutability": "nonpayable",
      "type": "function"
    },
    {
      "inputs": [
        {
          "internalType": "bytes4",
          "name": "interfaceId",
          "type": "bytes4"
        }
      ],
      "name": "supportsInterface",
      "outputs": [
        {
          "internalType": "bool",
          "name": "",
          "type": "bool"
        }
      ],
      "stateMutability": "view",
      "type": "function"
    },
    {
      "inputs": [],
      "name": "testNFT",
      "outputs": [
        {
          "internalType": "uint256",
          "name": "",
          "type": "uint256"
        }
      ],
      "stateMutability": "view",
      "type": "function"
    },
    {
      "inputs": [
        {
          "internalType": "address",
          "name": "newOwner",
          "type": "address"
        }
      ],
      "name": "transferOwnership",
      "outputs": [],
      "stateMutability": "nonpayable",
      "type": "function"
    },
    {
      "inputs": [
        {
          "internalType": "uint256",
          "name": "",
          "type": "uint256"
        }
      ],
      "name": "uri",
      "outputs": [
        {
          "internalType": "string",
          "name": "",
          "type": "string"
        }
      ],
      "stateMutability": "view",
      "type": "function"
    },
    {
      "inputs": [
        {
          "internalType": "address[]",
          "name": "toArr",
          "type": "address[]"
        },
        {
          "internalType": "uint256[]",
          "name": "amountArr",
          "type": "uint256[]"
        }
      ],
      "name": "tokenMint",
      "outputs": [
        {
          "internalType": "bool",
          "name": "",
          "type": "bool"
        }
      ],
      "stateMutability": "nonpayable",
      "type": "function"
    },
    {
      "inputs": [
        {
          "internalType": "address[]",
          "name": "fromArr",
          "type": "address[]"
        },
        {
          "internalType": "uint256[]",
          "name": "amountArr",
          "type": "uint256[]"
        }
      ],
      "name": "tokenBurn",
      "outputs": [
        {
          "internalType": "bool",
          "name": "",
          "type": "bool"
        }
      ],
      "stateMutability": "nonpayable",
      "type": "function"
    },
    {
      "inputs": [
        {
          "internalType": "uint256",
          "name": "price",
          "type": "uint256"
        }
      ],
      "name": "mintNFT",
      "outputs": [
        {
          "internalType": "bool",
          "name": "",
          "type": "bool"
        }
      ],
      "stateMutability": "nonpayable",
      "type": "function"
    },
    {
      "inputs": [
        {
          "internalType": "address",
          "name": "buyer",
          "type": "address"
        },
        {
          "internalType": "uint256",
          "name": "tokenId",
          "type": "uint256"
        },
        {
          "internalType": "uint256",
          "name": "price",
          "type": "uint256"
        }
      ],
      "name": "buyNFT",
      "outputs": [
        {
          "internalType": "bool",
          "name": "",
          "type": "bool"
        }
      ],
      "stateMutability": "nonpayable",
      "type": "function"
    },
    {
      "inputs": [
        {
          "internalType": "uint256",
          "name": "tokenId",
          "type": "uint256"
        }
      ],
      "name": "ownerOfNFT",
      "outputs": [
        {
          "internalType": "address",
          "name": "",
          "type": "address"
        }
      ],
      "stateMutability": "view",
      "type": "function"
    }
  ],
  "bytecode": "0x60806040523480156200001157600080fd5b5060405180606001604052806021815260200162004c29602191396200003d816200015460201b60201c565b506200005e620000526200017060201b60201c565b6200017860201b60201c565b6200007560046200023e60201b620012731760201c565b6200008c60046200023e60201b620012731760201c565b33600660006002815260200190815260200160002060006101000a81548173ffffffffffffffffffffffffffffffffffffffff021916908373ffffffffffffffffffffffffffffffffffffffff1602179055506064600560006002815260200190815260200160002081905550620001293360016b033b2e3c9fd0803ce8000000604051806020016040528060008152506200025460201b60201c565b6200014e3360026001604051806020016040528060008152506200025460201b60201c565b62000e6f565b80600290805190602001906200016c929190620006ea565b5050565b600033905090565b6000600360009054906101000a900473ffffffffffffffffffffffffffffffffffffffff16905081600360006101000a81548173ffffffffffffffffffffffffffffffffffffffff021916908373ffffffffffffffffffffffffffffffffffffffff1602179055508173ffffffffffffffffffffffffffffffffffffffff168173ffffffffffffffffffffffffffffffffffffffff167f8be0079c531659141344cd1fd0a4f28419497f9722a3daafe3b4186f6b6457e060405160405180910390a35050565b6001816000016000828254019250508190555050565b600073ffffffffffffffffffffffffffffffffffffffff168473ffffffffffffffffffffffffffffffffffffffff161415620002c7576040517f08c379a0000000000000000000000000000000000000000000000000000000008152600401620002be9062000821565b60405180910390fd5b6000620002d96200017060201b60201c565b90506000620002ee856200043c60201b60201c565b9050600062000303856200043c60201b60201c565b90506200031c83600089858589620004bd60201b60201c565b8460008088815260200190815260200160002060008973ffffffffffffffffffffffffffffffffffffffff1673ffffffffffffffffffffffffffffffffffffffff16815260200190815260200160002060008282546200037d91906200087c565b925050819055508673ffffffffffffffffffffffffffffffffffffffff16600073ffffffffffffffffffffffffffffffffffffffff168473ffffffffffffffffffffffffffffffffffffffff167fc3d58168c5ae7397731d063d5bbf3d657854427343f4c083240f7aacaa2d0f628989604051620003fd929190620008ea565b60405180910390a46200041c83600089858589620004c560201b60201c565b6200043383600089898989620004cd60201b60201c565b50505050505050565b60606000600167ffffffffffffffff8111156200045e576200045d62000917565b5b6040519080825280602002602001820160405280156200048d5781602001602082028036833780820191505090505b5090508281600081518110620004a857620004a762000946565b5b60200260200101818152505080915050919050565b505050505050565b505050505050565b620004f98473ffffffffffffffffffffffffffffffffffffffff16620006c760201b620012891760201c565b15620006bf578373ffffffffffffffffffffffffffffffffffffffff1663f23a6e6187878686866040518663ffffffff1660e01b81526004016200054295949392919062000a5e565b6020604051808303816000875af19250505080156200058157506040513d601f19601f820116820180604052508101906200057e919062000b2e565b60015b62000633576200059062000b6d565b806308c379a01415620005f45750620005a862000bc8565b80620005b55750620005f6565b806040517f08c379a0000000000000000000000000000000000000000000000000000000008152600401620005eb919062000cb6565b60405180910390fd5b505b6040517f08c379a00000000000000000000000000000000000000000000000000000000081526004016200062a9062000d50565b60405180910390fd5b63f23a6e6160e01b7bffffffffffffffffffffffffffffffffffffffffffffffffffffffff1916817bffffffffffffffffffffffffffffffffffffffffffffffffffffffff191614620006bd576040517f08c379a0000000000000000000000000000000000000000000000000000000008152600401620006b49062000de8565b60405180910390fd5b505b505050505050565b6000808273ffffffffffffffffffffffffffffffffffffffff163b119050919050565b828054620006f89062000e39565b90600052602060002090601f0160209004810192826200071c576000855562000768565b82601f106200073757805160ff191683800117855562000768565b8280016001018555821562000768579182015b82811115620007675782518255916020019190600101906200074a565b5b5090506200077791906200077b565b5090565b5b80821115620007965760008160009055506001016200077c565b5090565b600082825260208201905092915050565b7f455243313135353a206d696e7420746f20746865207a65726f2061646472657360008201527f7300000000000000000000000000000000000000000000000000000000000000602082015250565b6000620008096021836200079a565b91506200081682620007ab565b604082019050919050565b600060208201905081810360008301526200083c81620007fa565b9050919050565b6000819050919050565b7f4e487b7100000000000000000000000000000000000000000000000000000000600052601160045260246000fd5b6000620008898262000843565b9150620008968362000843565b9250827fffffffffffffffffffffffffffffffffffffffffffffffffffffffffffffffff03821115620008ce57620008cd6200084d565b5b828201905092915050565b620008e48162000843565b82525050565b6000604082019050620009016000830185620008d9565b620009106020830184620008d9565b9392505050565b7f4e487b7100000000000000000000000000000000000000000000000000000000600052604160045260246000fd5b7f4e487b7100000000000000000000000000000000000000000000000000000000600052603260045260246000fd5b600073ffffffffffffffffffffffffffffffffffffffff82169050919050565b6000620009a28262000975565b9050919050565b620009b48162000995565b82525050565b600081519050919050565b600082825260208201905092915050565b60005b83811015620009f6578082015181840152602081019050620009d9565b8381111562000a06576000848401525b50505050565b6000601f19601f8301169050919050565b600062000a2a82620009ba565b62000a368185620009c5565b935062000a48818560208601620009d6565b62000a538162000a0c565b840191505092915050565b600060a08201905062000a756000830188620009a9565b62000a846020830187620009a9565b62000a936040830186620008d9565b62000aa26060830185620008d9565b818103608083015262000ab6818462000a1d565b90509695505050505050565b6000604051905090565b600080fd5b60007fffffffff0000000000000000000000000000000000000000000000000000000082169050919050565b62000b088162000ad1565b811462000b1457600080fd5b50565b60008151905062000b288162000afd565b92915050565b60006020828403121562000b475762000b4662000acc565b5b600062000b578482850162000b17565b91505092915050565b60008160e01c9050919050565b600060033d111562000b8f5760046000803e62000b8c60005162000b60565b90505b90565b62000b9d8262000a0c565b810181811067ffffffffffffffff8211171562000bbf5762000bbe62000917565b5b80604052505050565b600060443d101562000bda5762000c67565b62000be462000ac2565b60043d036004823e80513d602482011167ffffffffffffffff8211171562000c0e57505062000c67565b808201805167ffffffffffffffff81111562000c2e575050505062000c67565b80602083010160043d03850181111562000c4d57505050505062000c67565b62000c5e8260200185018662000b92565b82955050505050505b90565b600081519050919050565b600062000c828262000c6a565b62000c8e81856200079a565b935062000ca0818560208601620009d6565b62000cab8162000a0c565b840191505092915050565b6000602082019050818103600083015262000cd2818462000c75565b905092915050565b7f455243313135353a207472616e7366657220746f206e6f6e204552433131353560008201527f526563656976657220696d706c656d656e746572000000000000000000000000602082015250565b600062000d386034836200079a565b915062000d458262000cda565b604082019050919050565b6000602082019050818103600083015262000d6b8162000d29565b9050919050565b7f455243313135353a204552433131353552656365697665722072656a6563746560008201527f6420746f6b656e73000000000000000000000000000000000000000000000000602082015250565b600062000dd06028836200079a565b915062000ddd8262000d72565b604082019050919050565b6000602082019050818103600083015262000e038162000dc1565b9050919050565b7f4e487b7100000000000000000000000000000000000000000000000000000000600052602260045260246000fd5b6000600282049050600182168062000e5257607f821691505b6020821081141562000e695762000e6862000e0a565b5b50919050565b613daa8062000e7f6000396000f3fe608060405234801561001057600080fd5b50600436106101155760003560e01c80638262a35f116100a2578063cee0eb4211610071578063cee0eb4214610318578063db6c941614610348578063e985e9c514610366578063f242432a14610396578063f2fde38b146103b257610115565b80638262a35f1461027e5780638da5cb5b146102ae57806392642744146102cc578063a22cb465146102fc57610115565b80632eb2c2d6116100e95780632eb2c2d6146101da5780634e1273f4146101f657806353da6f0114610226578063715018a614610256578063774554171461026057610115565b8062fdd58e1461011a57806301ffc9a71461014a5780630e89341c1461017a5780632d8a746e146101aa575b600080fd5b610134600480360381019061012f91906123f7565b6103ce565b6040516101419190612446565b60405180910390f35b610164600480360381019061015f91906124b9565b610497565b6040516101719190612501565b60405180910390f35b610194600480360381019061018f919061251c565b610579565b6040516101a191906125e2565b60405180910390f35b6101c460048036038101906101bf919061251c565b61060d565b6040516101d19190612613565b60405180910390f35b6101f460048036038101906101ef919061282b565b61064a565b005b610210600480360381019061020b91906129bd565b6106eb565b60405161021d9190612af3565b60405180910390f35b610240600480360381019061023b9190612b15565b610804565b60405161024d9190612501565b60405180910390f35b61025e6109fd565b005b610268610a85565b6040516102759190612446565b60405180910390f35b61029860048036038101906102939190612c19565b610a8a565b6040516102a59190612501565b60405180910390f35b6102b6610c9e565b6040516102c39190612613565b60405180910390f35b6102e660048036038101906102e1919061251c565b610cc8565b6040516102f39190612501565b60405180910390f35b61031660048036038101906103119190612cc6565b610e27565b005b610332600480360381019061032d9190612c19565b610e3d565b60405161033f9190612501565b60405180910390f35b610350611041565b60405161035d9190612446565b60405180910390f35b610380600480360381019061037b9190612d06565b611046565b60405161038d9190612501565b60405180910390f35b6103b060048036038101906103ab9190612d46565b6110da565b005b6103cc60048036038101906103c79190612ddd565b61117b565b005b60008073ffffffffffffffffffffffffffffffffffffffff168373ffffffffffffffffffffffffffffffffffffffff16141561043f576040517f08c379a000000000000000000000000000000000000000000000000000000000815260040161043690612e7c565b60405180910390fd5b60008083815260200190815260200160002060008473ffffffffffffffffffffffffffffffffffffffff1673ffffffffffffffffffffffffffffffffffffffff16815260200190815260200160002054905092915050565b60007fd9b67a26000000000000000000000000000000000000000000000000000000007bffffffffffffffffffffffffffffffffffffffffffffffffffffffff1916827bffffffffffffffffffffffffffffffffffffffffffffffffffffffff1916148061056257507f0e89341c000000000000000000000000000000000000000000000000000000007bffffffffffffffffffffffffffffffffffffffffffffffffffffffff1916827bffffffffffffffffffffffffffffffffffffffffffffffffffffffff1916145b806105725750610571826112ac565b5b9050919050565b60606002805461058890612ecb565b80601f01602080910402602001604051908101604052809291908181526020018280546105b490612ecb565b80156106015780601f106105d657610100808354040283529160200191610601565b820191906000526020600020905b8154815290600101906020018083116105e457829003601f168201915b50505050509050919050565b60006006600083815260200190815260200160002060009054906101000a900473ffffffffffffffffffffffffffffffffffffffff169050919050565b610652611316565b73ffffffffffffffffffffffffffffffffffffffff168573ffffffffffffffffffffffffffffffffffffffff161480610698575061069785610692611316565b611046565b5b6106d7576040517f08c379a00000000000000000000000000000000000000000000000000000000081526004016106ce90612f6f565b60405180910390fd5b6106e4858585858561131e565b5050505050565b60608151835114610731576040517f08c379a000000000000000000000000000000000000000000000000000000000815260040161072890613001565b60405180910390fd5b6000835167ffffffffffffffff81111561074e5761074d612633565b5b60405190808252806020026020018201604052801561077c5781602001602082028036833780820191505090505b50905060005b84518110156107f9576107c98582815181106107a1576107a0613021565b5b60200260200101518583815181106107bc576107bb613021565b5b60200260200101516103ce565b8282815181106107dc576107db613021565b5b602002602001018181525050806107f29061307f565b9050610782565b508091505092915050565b600061080e611316565b73ffffffffffffffffffffffffffffffffffffffff1661082c610c9e565b73ffffffffffffffffffffffffffffffffffffffff1614610882576040517f08c379a000000000000000000000000000000000000000000000000000000000815260040161087990613114565b60405180910390fd5b61088c6004611640565b8311156108ce576040517f08c379a00000000000000000000000000000000000000000000000000000000081526004016108c5906131a6565b60405180910390fd5b6005600084815260200190815260200160002054821015610924576040517f08c379a000000000000000000000000000000000000000000000000000000000815260040161091b90613212565b60405180910390fd5b6109413385856001604051806020016040528060008152506110da565b816005600085815260200190815260200160002081905550836006600085815260200190815260200160002060006101000a81548173ffffffffffffffffffffffffffffffffffffffff021916908373ffffffffffffffffffffffffffffffffffffffff1602179055506109b78460018461164e565b7fe27ae26b1b18b38f4b5f8f8ea52860363020cab672d4bc787da0be4cf62eb4d18484846040516109ea93929190613232565b60405180910390a1600190509392505050565b610a05611316565b73ffffffffffffffffffffffffffffffffffffffff16610a23610c9e565b73ffffffffffffffffffffffffffffffffffffffff1614610a79576040517f08c379a0000000000000000000000000000000000000000000000000000000008152600401610a7090613114565b60405180910390fd5b610a836000611895565b565b600281565b6000610a94611316565b73ffffffffffffffffffffffffffffffffffffffff16610ab2610c9e565b73ffffffffffffffffffffffffffffffffffffffff1614610b08576040517f08c379a0000000000000000000000000000000000000000000000000000000008152600401610aff90613114565b60405180910390fd5b828290508585905014610b50576040517f08c379a0000000000000000000000000000000000000000000000000000000008152600401610b47906132db565b60405180910390fd5b60005b85859050811015610c5457600073ffffffffffffffffffffffffffffffffffffffff16868683818110610b8957610b88613021565b5b9050602002016020810190610b9e9190612ddd565b73ffffffffffffffffffffffffffffffffffffffff161415610bbf57600080fd5b6000848483818110610bd457610bd3613021565b5b9050602002013511610be557600080fd5b610c41868683818110610bfb57610bfa613021565b5b9050602002016020810190610c109190612ddd565b6001868685818110610c2557610c24613021565b5b905060200201356040518060200160405280600081525061195b565b8080610c4c9061307f565b915050610b53565b507f0cdecc26d558f51a25c242afefd2a11e23136f9117b645dd4b87f3ca45e2eb6f85858585604051610c8a949392919061341f565b60405180910390a160019050949350505050565b6000600360009054906101000a900473ffffffffffffffffffffffffffffffffffffffff16905090565b6000610cd2611316565b73ffffffffffffffffffffffffffffffffffffffff16610cf0610c9e565b73ffffffffffffffffffffffffffffffffffffffff1614610d46576040517f08c379a0000000000000000000000000000000000000000000000000000000008152600401610d3d90613114565b60405180910390fd5b610d506004611273565b6000610d5c6004611640565b9050610d7a338260016040518060200160405280600081525061195b565b826005600083815260200190815260200160002081905550336006600083815260200190815260200160002060006101000a81548173ffffffffffffffffffffffffffffffffffffffff021916908373ffffffffffffffffffffffffffffffffffffffff1602179055507f8cef0d30ca4873649a90eb8c8020564aa8e888375491c0de28328204d267d9688184604051610e1592919061345a565b60405180910390a16001915050919050565b610e39610e32611316565b8383611b0c565b5050565b6000610e47611316565b73ffffffffffffffffffffffffffffffffffffffff16610e65610c9e565b73ffffffffffffffffffffffffffffffffffffffff1614610ebb576040517f08c379a0000000000000000000000000000000000000000000000000000000008152600401610eb290613114565b60405180910390fd5b828290508585905014610f03576040517f08c379a0000000000000000000000000000000000000000000000000000000008152600401610efa906132db565b60405180910390fd5b60005b85859050811015610ff757600073ffffffffffffffffffffffffffffffffffffffff16868683818110610f3c57610f3b613021565b5b9050602002016020810190610f519190612ddd565b73ffffffffffffffffffffffffffffffffffffffff161415610f7257600080fd5b6000848483818110610f8757610f86613021565b5b9050602002013511610f9857600080fd5b610fe4868683818110610fae57610fad613021565b5b9050602002016020810190610fc39190612ddd565b6001868685818110610fd857610fd7613021565b5b9050602002013561164e565b8080610fef9061307f565b915050610f06565b507fb99c7b9e6a898677d204c7ed7d5ba567391dcb29ac386a2260ca17fbbad61ec08585858560405161102d949392919061341f565b60405180910390a160019050949350505050565b600181565b6000600160008473ffffffffffffffffffffffffffffffffffffffff1673ffffffffffffffffffffffffffffffffffffffff16815260200190815260200160002060008373ffffffffffffffffffffffffffffffffffffffff1673ffffffffffffffffffffffffffffffffffffffff16815260200190815260200160002060009054906101000a900460ff16905092915050565b6110e2611316565b73ffffffffffffffffffffffffffffffffffffffff168573ffffffffffffffffffffffffffffffffffffffff161480611128575061112785611122611316565b611046565b5b611167576040517f08c379a000000000000000000000000000000000000000000000000000000000815260040161115e906134f5565b60405180910390fd5b6111748585858585611c79565b5050505050565b611183611316565b73ffffffffffffffffffffffffffffffffffffffff166111a1610c9e565b73ffffffffffffffffffffffffffffffffffffffff16146111f7576040517f08c379a00000000000000000000000000000000000000000000000000000000081526004016111ee90613114565b60405180910390fd5b600073ffffffffffffffffffffffffffffffffffffffff168173ffffffffffffffffffffffffffffffffffffffff161415611267576040517f08c379a000000000000000000000000000000000000000000000000000000000815260040161125e90613587565b60405180910390fd5b61127081611895565b50565b6001816000016000828254019250508190555050565b6000808273ffffffffffffffffffffffffffffffffffffffff163b119050919050565b60007f01ffc9a7000000000000000000000000000000000000000000000000000000007bffffffffffffffffffffffffffffffffffffffffffffffffffffffff1916827bffffffffffffffffffffffffffffffffffffffffffffffffffffffff1916149050919050565b600033905090565b8151835114611362576040517f08c379a000000000000000000000000000000000000000000000000000000000815260040161135990613619565b60405180910390fd5b600073ffffffffffffffffffffffffffffffffffffffff168473ffffffffffffffffffffffffffffffffffffffff1614156113d2576040517f08c379a00000000000000000000000000000000000000000000000000000000081526004016113c9906136ab565b60405180910390fd5b60006113dc611316565b90506113ec818787878787611f15565b60005b845181101561159d57600085828151811061140d5761140c613021565b5b60200260200101519050600085838151811061142c5761142b613021565b5b60200260200101519050600080600084815260200190815260200160002060008b73ffffffffffffffffffffffffffffffffffffffff1673ffffffffffffffffffffffffffffffffffffffff168152602001908152602001600020549050818110156114cd576040517f08c379a00000000000000000000000000000000000000000000000000000000081526004016114c49061373d565b60405180910390fd5b81810360008085815260200190815260200160002060008c73ffffffffffffffffffffffffffffffffffffffff1673ffffffffffffffffffffffffffffffffffffffff168152602001908152602001600020819055508160008085815260200190815260200160002060008b73ffffffffffffffffffffffffffffffffffffffff1673ffffffffffffffffffffffffffffffffffffffff1681526020019081526020016000206000828254611582919061375d565b92505081905550505050806115969061307f565b90506113ef565b508473ffffffffffffffffffffffffffffffffffffffff168673ffffffffffffffffffffffffffffffffffffffff168273ffffffffffffffffffffffffffffffffffffffff167f4a39dc06d4c0dbc64b70af90fd698a233a518aa5d07e595d983b8c0526c8f7fb87876040516116149291906137b3565b60405180910390a461162a818787878787611f1d565b611638818787878787611f25565b505050505050565b600081600001549050919050565b600073ffffffffffffffffffffffffffffffffffffffff168373ffffffffffffffffffffffffffffffffffffffff1614156116be576040517f08c379a00000000000000000000000000000000000000000000000000000000081526004016116b59061385c565b60405180910390fd5b60006116c8611316565b905060006116d5846120fd565b905060006116e2846120fd565b905061170283876000858560405180602001604052806000815250611f15565b600080600087815260200190815260200160002060008873ffffffffffffffffffffffffffffffffffffffff1673ffffffffffffffffffffffffffffffffffffffff16815260200190815260200160002054905084811015611799576040517f08c379a0000000000000000000000000000000000000000000000000000000008152600401611790906138ee565b60405180910390fd5b84810360008088815260200190815260200160002060008973ffffffffffffffffffffffffffffffffffffffff1673ffffffffffffffffffffffffffffffffffffffff16815260200190815260200160002081905550600073ffffffffffffffffffffffffffffffffffffffff168773ffffffffffffffffffffffffffffffffffffffff168573ffffffffffffffffffffffffffffffffffffffff167fc3d58168c5ae7397731d063d5bbf3d657854427343f4c083240f7aacaa2d0f62898960405161186692919061345a565b60405180910390a461188c84886000868660405180602001604052806000815250611f1d565b50505050505050565b6000600360009054906101000a900473ffffffffffffffffffffffffffffffffffffffff16905081600360006101000a81548173ffffffffffffffffffffffffffffffffffffffff021916908373ffffffffffffffffffffffffffffffffffffffff1602179055508173ffffffffffffffffffffffffffffffffffffffff168173ffffffffffffffffffffffffffffffffffffffff167f8be0079c531659141344cd1fd0a4f28419497f9722a3daafe3b4186f6b6457e060405160405180910390a35050565b600073ffffffffffffffffffffffffffffffffffffffff168473ffffffffffffffffffffffffffffffffffffffff1614156119cb576040517f08c379a00000000000000000000000000000000000000000000000000000000081526004016119c290613980565b60405180910390fd5b60006119d5611316565b905060006119e2856120fd565b905060006119ef856120fd565b9050611a0083600089858589611f15565b8460008088815260200190815260200160002060008973ffffffffffffffffffffffffffffffffffffffff1673ffffffffffffffffffffffffffffffffffffffff1681526020019081526020016000206000828254611a5f919061375d565b925050819055508673ffffffffffffffffffffffffffffffffffffffff16600073ffffffffffffffffffffffffffffffffffffffff168473ffffffffffffffffffffffffffffffffffffffff167fc3d58168c5ae7397731d063d5bbf3d657854427343f4c083240f7aacaa2d0f628989604051611add92919061345a565b60405180910390a4611af483600089858589611f1d565b611b0383600089898989612177565b50505050505050565b8173ffffffffffffffffffffffffffffffffffffffff168373ffffffffffffffffffffffffffffffffffffffff161415611b7b576040517f08c379a0000000000000000000000000000000000000000000000000000000008152600401611b7290613a12565b60405180910390fd5b80600160008573ffffffffffffffffffffffffffffffffffffffff1673ffffffffffffffffffffffffffffffffffffffff16815260200190815260200160002060008473ffffffffffffffffffffffffffffffffffffffff1673ffffffffffffffffffffffffffffffffffffffff16815260200190815260200160002060006101000a81548160ff0219169083151502179055508173ffffffffffffffffffffffffffffffffffffffff168373ffffffffffffffffffffffffffffffffffffffff167f17307eab39ab6107e8899845ad3d59bd9653f200f220920489ca2b5937696c3183604051611c6c9190612501565b60405180910390a3505050565b600073ffffffffffffffffffffffffffffffffffffffff168473ffffffffffffffffffffffffffffffffffffffff161415611ce9576040517f08c379a0000000000000000000000000000000000000000000000000000000008152600401611ce0906136ab565b60405180910390fd5b6000611cf3611316565b90506000611d00856120fd565b90506000611d0d856120fd565b9050611d1d838989858589611f15565b600080600088815260200190815260200160002060008a73ffffffffffffffffffffffffffffffffffffffff1673ffffffffffffffffffffffffffffffffffffffff16815260200190815260200160002054905085811015611db4576040517f08c379a0000000000000000000000000000000000000000000000000000000008152600401611dab9061373d565b60405180910390fd5b85810360008089815260200190815260200160002060008b73ffffffffffffffffffffffffffffffffffffffff1673ffffffffffffffffffffffffffffffffffffffff168152602001908152602001600020819055508560008089815260200190815260200160002060008a73ffffffffffffffffffffffffffffffffffffffff1673ffffffffffffffffffffffffffffffffffffffff1681526020019081526020016000206000828254611e69919061375d565b925050819055508773ffffffffffffffffffffffffffffffffffffffff168973ffffffffffffffffffffffffffffffffffffffff168573ffffffffffffffffffffffffffffffffffffffff167fc3d58168c5ae7397731d063d5bbf3d657854427343f4c083240f7aacaa2d0f628a8a604051611ee692919061345a565b60405180910390a4611efc848a8a86868a611f1d565b611f0a848a8a8a8a8a612177565b505050505050505050565b505050505050565b505050505050565b611f448473ffffffffffffffffffffffffffffffffffffffff16611289565b156120f5578373ffffffffffffffffffffffffffffffffffffffff1663bc197c8187878686866040518663ffffffff1660e01b8152600401611f8a959493929190613a87565b6020604051808303816000875af1925050508015611fc657506040513d601f19601f82011682018060405250810190611fc39190613b04565b60015b61206c57611fd2613b3e565b806308c379a0141561202f5750611fe7613b60565b80611ff25750612031565b806040517f08c379a000000000000000000000000000000000000000000000000000000000815260040161202691906125e2565b60405180910390fd5b505b6040517f08c379a000000000000000000000000000000000000000000000000000000000815260040161206390613c68565b60405180910390fd5b63bc197c8160e01b7bffffffffffffffffffffffffffffffffffffffffffffffffffffffff1916817bffffffffffffffffffffffffffffffffffffffffffffffffffffffff1916146120f3576040517f08c379a00000000000000000000000000000000000000000000000000000000081526004016120ea90613cfa565b60405180910390fd5b505b505050505050565b60606000600167ffffffffffffffff81111561211c5761211b612633565b5b60405190808252806020026020018201604052801561214a5781602001602082028036833780820191505090505b509050828160008151811061216257612161613021565b5b60200260200101818152505080915050919050565b6121968473ffffffffffffffffffffffffffffffffffffffff16611289565b15612347578373ffffffffffffffffffffffffffffffffffffffff1663f23a6e6187878686866040518663ffffffff1660e01b81526004016121dc959493929190613d1a565b6020604051808303816000875af192505050801561221857506040513d601f19601f820116820180604052508101906122159190613b04565b60015b6122be57612224613b3e565b806308c379a014156122815750612239613b60565b806122445750612283565b806040517f08c379a000000000000000000000000000000000000000000000000000000000815260040161227891906125e2565b60405180910390fd5b505b6040517f08c379a00000000000000000000000000000000000000000000000000000000081526004016122b590613c68565b60405180910390fd5b63f23a6e6160e01b7bffffffffffffffffffffffffffffffffffffffffffffffffffffffff1916817bffffffffffffffffffffffffffffffffffffffffffffffffffffffff191614612345576040517f08c379a000000000000000000000000000000000000000000000000000000000815260040161233c90613cfa565b60405180910390fd5b505b505050505050565b6000604051905090565b600080fd5b600080fd5b600073ffffffffffffffffffffffffffffffffffffffff82169050919050565b600061238e82612363565b9050919050565b61239e81612383565b81146123a957600080fd5b50565b6000813590506123bb81612395565b92915050565b6000819050919050565b6123d4816123c1565b81146123df57600080fd5b50565b6000813590506123f1816123cb565b92915050565b6000806040838503121561240e5761240d612359565b5b600061241c858286016123ac565b925050602061242d858286016123e2565b9150509250929050565b612440816123c1565b82525050565b600060208201905061245b6000830184612437565b92915050565b60007fffffffff0000000000000000000000000000000000000000000000000000000082169050919050565b61249681612461565b81146124a157600080fd5b50565b6000813590506124b38161248d565b92915050565b6000602082840312156124cf576124ce612359565b5b60006124dd848285016124a4565b91505092915050565b60008115159050919050565b6124fb816124e6565b82525050565b600060208201905061251660008301846124f2565b92915050565b60006020828403121561253257612531612359565b5b6000612540848285016123e2565b91505092915050565b600081519050919050565b600082825260208201905092915050565b60005b83811015612583578082015181840152602081019050612568565b83811115612592576000848401525b50505050565b6000601f19601f8301169050919050565b60006125b482612549565b6125be8185612554565b93506125ce818560208601612565565b6125d781612598565b840191505092915050565b600060208201905081810360008301526125fc81846125a9565b905092915050565b61260d81612383565b82525050565b60006020820190506126286000830184612604565b92915050565b600080fd5b7f4e487b7100000000000000000000000000000000000000000000000000000000600052604160045260246000fd5b61266b82612598565b810181811067ffffffffffffffff8211171561268a57612689612633565b5b80604052505050565b600061269d61234f565b90506126a98282612662565b919050565b600067ffffffffffffffff8211156126c9576126c8612633565b5b602082029050602081019050919050565b600080fd5b60006126f26126ed846126ae565b612693565b90508083825260208201905060208402830185811115612715576127146126da565b5b835b8181101561273e578061272a88826123e2565b845260208401935050602081019050612717565b5050509392505050565b600082601f83011261275d5761275c61262e565b5b813561276d8482602086016126df565b91505092915050565b600080fd5b600067ffffffffffffffff82111561279657612795612633565b5b61279f82612598565b9050602081019050919050565b82818337600083830152505050565b60006127ce6127c98461277b565b612693565b9050828152602081018484840111156127ea576127e9612776565b5b6127f58482856127ac565b509392505050565b600082601f8301126128125761281161262e565b5b81356128228482602086016127bb565b91505092915050565b600080600080600060a0868803121561284757612846612359565b5b6000612855888289016123ac565b9550506020612866888289016123ac565b945050604086013567ffffffffffffffff8111156128875761288661235e565b5b61289388828901612748565b935050606086013567ffffffffffffffff8111156128b4576128b361235e565b5b6128c088828901612748565b925050608086013567ffffffffffffffff8111156128e1576128e061235e565b5b6128ed888289016127fd565b9150509295509295909350565b600067ffffffffffffffff82111561291557612914612633565b5b602082029050602081019050919050565b6000612939612934846128fa565b612693565b9050808382526020820190506020840283018581111561295c5761295b6126da565b5b835b81811015612985578061297188826123ac565b84526020840193505060208101905061295e565b5050509392505050565b600082601f8301126129a4576129a361262e565b5b81356129b4848260208601612926565b91505092915050565b600080604083850312156129d4576129d3612359565b5b600083013567ffffffffffffffff8111156129f2576129f161235e565b5b6129fe8582860161298f565b925050602083013567ffffffffffffffff811115612a1f57612a1e61235e565b5b612a2b85828601612748565b9150509250929050565b600081519050919050565b600082825260208201905092915050565b6000819050602082019050919050565b612a6a816123c1565b82525050565b6000612a7c8383612a61565b60208301905092915050565b6000602082019050919050565b6000612aa082612a35565b612aaa8185612a40565b9350612ab583612a51565b8060005b83811015612ae6578151612acd8882612a70565b9750612ad883612a88565b925050600181019050612ab9565b5085935050505092915050565b60006020820190508181036000830152612b0d8184612a95565b905092915050565b600080600060608486031215612b2e57612b2d612359565b5b6000612b3c868287016123ac565b9350506020612b4d868287016123e2565b9250506040612b5e868287016123e2565b9150509250925092565b600080fd5b60008083601f840112612b8357612b8261262e565b5b8235905067ffffffffffffffff811115612ba057612b9f612b68565b5b602083019150836020820283011115612bbc57612bbb6126da565b5b9250929050565b60008083601f840112612bd957612bd861262e565b5b8235905067ffffffffffffffff811115612bf657612bf5612b68565b5b602083019150836020820283011115612c1257612c116126da565b5b9250929050565b60008060008060408587031215612c3357612c32612359565b5b600085013567ffffffffffffffff811115612c5157612c5061235e565b5b612c5d87828801612b6d565b9450945050602085013567ffffffffffffffff811115612c8057612c7f61235e565b5b612c8c87828801612bc3565b925092505092959194509250565b612ca3816124e6565b8114612cae57600080fd5b50565b600081359050612cc081612c9a565b92915050565b60008060408385031215612cdd57612cdc612359565b5b6000612ceb858286016123ac565b9250506020612cfc85828601612cb1565b9150509250929050565b60008060408385031215612d1d57612d1c612359565b5b6000612d2b858286016123ac565b9250506020612d3c858286016123ac565b9150509250929050565b600080600080600060a08688031215612d6257612d61612359565b5b6000612d70888289016123ac565b9550506020612d81888289016123ac565b9450506040612d92888289016123e2565b9350506060612da3888289016123e2565b925050608086013567ffffffffffffffff811115612dc457612dc361235e565b5b612dd0888289016127fd565b9150509295509295909350565b600060208284031215612df357612df2612359565b5b6000612e01848285016123ac565b91505092915050565b7f455243313135353a2062616c616e636520717565727920666f7220746865207a60008201527f65726f2061646472657373000000000000000000000000000000000000000000602082015250565b6000612e66602b83612554565b9150612e7182612e0a565b604082019050919050565b60006020820190508181036000830152612e9581612e59565b9050919050565b7f4e487b7100000000000000000000000000000000000000000000000000000000600052602260045260246000fd5b60006002820490506001821680612ee357607f821691505b60208210811415612ef757612ef6612e9c565b5b50919050565b7f455243313135353a207472616e736665722063616c6c6572206973206e6f742060008201527f6f776e6572206e6f7220617070726f7665640000000000000000000000000000602082015250565b6000612f59603283612554565b9150612f6482612efd565b604082019050919050565b60006020820190508181036000830152612f8881612f4c565b9050919050565b7f455243313135353a206163636f756e747320616e6420696473206c656e67746860008201527f206d69736d617463680000000000000000000000000000000000000000000000602082015250565b6000612feb602983612554565b9150612ff682612f8f565b604082019050919050565b6000602082019050818103600083015261301a81612fde565b9050919050565b7f4e487b7100000000000000000000000000000000000000000000000000000000600052603260045260246000fd5b7f4e487b7100000000000000000000000000000000000000000000000000000000600052601160045260246000fd5b600061308a826123c1565b91507fffffffffffffffffffffffffffffffffffffffffffffffffffffffffffffffff8214156130bd576130bc613050565b5b600182019050919050565b7f4f776e61626c653a2063616c6c6572206973206e6f7420746865206f776e6572600082015250565b60006130fe602083612554565b9150613109826130c8565b602082019050919050565b6000602082019050818103600083015261312d816130f1565b9050919050565b7f436f72726573706f6e64696e6720746f6b656e20646f6573206e6f742065786960008201527f7374000000000000000000000000000000000000000000000000000000000000602082015250565b6000613190602283612554565b915061319b82613134565b604082019050919050565b600060208201905081810360008301526131bf81613183565b9050919050565b7f4e6f7420656e6f756768207061796d656e740000000000000000000000000000600082015250565b60006131fc601283612554565b9150613207826131c6565b602082019050919050565b6000602082019050818103600083015261322b816131ef565b9050919050565b60006060820190506132476000830186612604565b6132546020830185612437565b6132616040830184612437565b949350505050565b7f726563656976657220616e6420616d6f756e74206172726179206c656e67746860008201527f20697320646966666572656e7400000000000000000000000000000000000000602082015250565b60006132c5602d83612554565b91506132d082613269565b604082019050919050565b600060208201905081810360008301526132f4816132b8565b9050919050565b600082825260208201905092915050565b6000819050919050565b61331f81612383565b82525050565b60006133318383613316565b60208301905092915050565b600061334c60208401846123ac565b905092915050565b6000602082019050919050565b600061336d83856132fb565b93506133788261330c565b8060005b858110156133b15761338e828461333d565b6133988882613325565b97506133a383613354565b92505060018101905061337c565b5085925050509392505050565b600080fd5b60006133cf8385612a40565b93507f07ffffffffffffffffffffffffffffffffffffffffffffffffffffffffffffff831115613402576134016133be565b5b6020830292506134138385846127ac565b82840190509392505050565b6000604082019050818103600083015261343a818688613361565b9050818103602083015261344f8184866133c3565b905095945050505050565b600060408201905061346f6000830185612437565b61347c6020830184612437565b9392505050565b7f455243313135353a2063616c6c6572206973206e6f74206f776e6572206e6f7260008201527f20617070726f7665640000000000000000000000000000000000000000000000602082015250565b60006134df602983612554565b91506134ea82613483565b604082019050919050565b6000602082019050818103600083015261350e816134d2565b9050919050565b7f4f776e61626c653a206e6577206f776e657220697320746865207a65726f206160008201527f6464726573730000000000000000000000000000000000000000000000000000602082015250565b6000613571602683612554565b915061357c82613515565b604082019050919050565b600060208201905081810360008301526135a081613564565b9050919050565b7f455243313135353a2069647320616e6420616d6f756e7473206c656e6774682060008201527f6d69736d61746368000000000000000000000000000000000000000000000000602082015250565b6000613603602883612554565b915061360e826135a7565b604082019050919050565b60006020820190508181036000830152613632816135f6565b9050919050565b7f455243313135353a207472616e7366657220746f20746865207a65726f20616460008201527f6472657373000000000000000000000000000000000000000000000000000000602082015250565b6000613695602583612554565b91506136a082613639565b604082019050919050565b600060208201905081810360008301526136c481613688565b9050919050565b7f455243313135353a20696e73756666696369656e742062616c616e636520666f60008201527f72207472616e7366657200000000000000000000000000000000000000000000602082015250565b6000613727602a83612554565b9150613732826136cb565b604082019050919050565b600060208201905081810360008301526137568161371a565b9050919050565b6000613768826123c1565b9150613773836123c1565b9250827fffffffffffffffffffffffffffffffffffffffffffffffffffffffffffffffff038211156137a8576137a7613050565b5b828201905092915050565b600060408201905081810360008301526137cd8185612a95565b905081810360208301526137e18184612a95565b90509392505050565b7f455243313135353a206275726e2066726f6d20746865207a65726f206164647260008201527f6573730000000000000000000000000000000000000000000000000000000000602082015250565b6000613846602383612554565b9150613851826137ea565b604082019050919050565b6000602082019050818103600083015261387581613839565b9050919050565b7f455243313135353a206275726e20616d6f756e7420657863656564732062616c60008201527f616e636500000000000000000000000000000000000000000000000000000000602082015250565b60006138d8602483612554565b91506138e38261387c565b604082019050919050565b60006020820190508181036000830152613907816138cb565b9050919050565b7f455243313135353a206d696e7420746f20746865207a65726f2061646472657360008201527f7300000000000000000000000000000000000000000000000000000000000000602082015250565b600061396a602183612554565b91506139758261390e565b604082019050919050565b600060208201905081810360008301526139998161395d565b9050919050565b7f455243313135353a2073657474696e6720617070726f76616c2073746174757360008201527f20666f722073656c660000000000000000000000000000000000000000000000602082015250565b60006139fc602983612554565b9150613a07826139a0565b604082019050919050565b60006020820190508181036000830152613a2b816139ef565b9050919050565b600081519050919050565b600082825260208201905092915050565b6000613a5982613a32565b613a638185613a3d565b9350613a73818560208601612565565b613a7c81612598565b840191505092915050565b600060a082019050613a9c6000830188612604565b613aa96020830187612604565b8181036040830152613abb8186612a95565b90508181036060830152613acf8185612a95565b90508181036080830152613ae38184613a4e565b90509695505050505050565b600081519050613afe8161248d565b92915050565b600060208284031215613b1a57613b19612359565b5b6000613b2884828501613aef565b91505092915050565b60008160e01c9050919050565b600060033d1115613b5d5760046000803e613b5a600051613b31565b90505b90565b600060443d1015613b7057613bf3565b613b7861234f565b60043d036004823e80513d602482011167ffffffffffffffff82111715613ba0575050613bf3565b808201805167ffffffffffffffff811115613bbe5750505050613bf3565b80602083010160043d038501811115613bdb575050505050613bf3565b613bea82602001850186612662565b82955050505050505b90565b7f455243313135353a207472616e7366657220746f206e6f6e204552433131353560008201527f526563656976657220696d706c656d656e746572000000000000000000000000602082015250565b6000613c52603483612554565b9150613c5d82613bf6565b604082019050919050565b60006020820190508181036000830152613c8181613c45565b9050919050565b7f455243313135353a204552433131353552656365697665722072656a6563746560008201527f6420746f6b656e73000000000000000000000000000000000000000000000000602082015250565b6000613ce4602883612554565b9150613cef82613c88565b604082019050919050565b60006020820190508181036000830152613d1381613cd7565b9050919050565b600060a082019050613d2f6000830188612604565b613d3c6020830187612604565b613d496040830186612437565b613d566060830185612437565b8181036080830152613d688184613a4e565b9050969550505050505056fea26469706673582212200b0a5f0198d56edaf2f5d2d8977afbee9b921ea92bd70242617068677c0595b364736f6c634300080a003368747470733a2f2f7777772e6578616d706c652e636f6d2f7b746f6b656e49647d",
  "immutableReferences": {},
  "source": "// SPDX-License-Identifier: MIT\npragma solidity ^0.8.10;\n\nimport \"openzeppelin-solidity/contracts/token/ERC1155/ERC1155.sol\";\nimport \"openzeppelin-solidity/contracts/access/Ownable.sol\";\nimport \"openzeppelin-solidity/contracts/utils/Counters.sol\";\n\ncontract AgoraTokens is ERC1155, Ownable {\n    using Counters for Counters.Counter;\n    Counters.Counter private _tokenIds;\n    uint256 public constant AgoraToken = 1;\n    uint256 public constant testNFT = 2;\n    mapping (uint256 => uint256) private tokenPrice;\n    mapping (uint256 => address) private tokenOwner;\n\n\n    \n    event BurnedToken(address[] fromArr, uint256[] amount);\n    event MintedToken(address[] toArr, uint256[] amount);\n    event MintedNFT(uint256 tokenId, uint256 price);\n    event UserNFTBuy(address buyer, uint256 tokenId, uint256 price);\n    \n\n    constructor() ERC1155(\"https://www.example.com/{tokenId}\") {\n        _tokenIds.increment();\n        _tokenIds.increment();\n        tokenOwner[2] = msg.sender;\n        tokenPrice[2] = 100;\n        _mint(msg.sender, AgoraToken, 10**27, \"\");\n        _mint(msg.sender, testNFT, 1, \"\");\n    }\n\n    function tokenMint(address[] calldata toArr, uint256[] calldata amountArr) public onlyOwner returns (bool){\n        require(toArr.length == amountArr.length, \"receiver and amount array length is different\");\n        for(uint256 i = 0; i < toArr.length; i++) {\n            require(toArr[i] != address(0x0));\n            require(amountArr[i] > 0);\n            _mint(toArr[i], AgoraToken, amountArr[i], \"\");\n            }\n        emit MintedToken(toArr, amountArr);\n        return true;\n    }\n\n    function tokenBurn (address[] calldata fromArr, uint256[] calldata amountArr) public onlyOwner returns (bool){\n        require(fromArr.length == amountArr.length, \"receiver and amount array length is different\");\n        for(uint256 i = 0; i < fromArr.length; i++) {\n            require(fromArr[i] != address(0x0));\n            require(amountArr[i] > 0);\n            _burn(fromArr[i], AgoraToken, amountArr[i]);\n            \n        }\n        emit BurnedToken(fromArr, amountArr);\n        return true;\n    }\n\n    function mintNFT (uint256 price) external onlyOwner returns(bool){\n        _tokenIds.increment();\n        uint256 newItemId = _tokenIds.current();\n        _mint(msg.sender, newItemId, 1, \"\");\n        tokenPrice[newItemId] = price;\n        tokenOwner[newItemId] = msg.sender;\n\n        emit MintedNFT(newItemId, price);\n        return true;\n    }\n\n    function buyNFT (address buyer, uint256 tokenId, uint256 price) external onlyOwner returns(bool){\n        require(tokenId <= _tokenIds.current(), \"Corresponding token does not exist\");\n        require(price >= tokenPrice[tokenId], \"Not enough payment\");\n        safeTransferFrom(msg.sender, buyer, tokenId, 1, \"\");\n        tokenPrice[tokenId] = price;\n        tokenOwner[tokenId] = buyer;\n        _burn(buyer, AgoraToken, price);\n        emit UserNFTBuy(buyer, tokenId, price);\n\n        return true;\n    }\n    \n    function ownerOfNFT (uint256 tokenId) external view returns(address){\n        return tokenOwner[tokenId];\n    }\n\n\n\n}",
  "sourcePath": "/Users/yooseungjun/Desktop/blockchain/Project-Agora_server/truffle/contracts/ERC1155.sol",
  "compiler": {
    "name": "solc",
    "version": "0.8.10+commit.fc410830.Emscripten.clang"
  },
  "schemaVersion": "3.4.7",
  "updatedAt": "2022-07-10T12:01:38.144Z",
  "devdoc": {
    "kind": "dev",
    "methods": {
      "balanceOf(address,uint256)": {
        "details": "See {IERC1155-balanceOf}. Requirements: - `account` cannot be the zero address."
      },
      "balanceOfBatch(address[],uint256[])": {
        "details": "See {IERC1155-balanceOfBatch}. Requirements: - `accounts` and `ids` must have the same length."
      },
      "isApprovedForAll(address,address)": {
        "details": "See {IERC1155-isApprovedForAll}."
      },
      "owner()": {
        "details": "Returns the address of the current owner."
      },
      "renounceOwnership()": {
        "details": "Leaves the contract without owner. It will not be possible to call `onlyOwner` functions anymore. Can only be called by the current owner. NOTE: Renouncing ownership will leave the contract without an owner, thereby removing any functionality that is only available to the owner."
      },
      "safeBatchTransferFrom(address,address,uint256[],uint256[],bytes)": {
        "details": "See {IERC1155-safeBatchTransferFrom}."
      },
      "safeTransferFrom(address,address,uint256,uint256,bytes)": {
        "details": "See {IERC1155-safeTransferFrom}."
      },
      "setApprovalForAll(address,bool)": {
        "details": "See {IERC1155-setApprovalForAll}."
      },
      "supportsInterface(bytes4)": {
        "details": "See {IERC165-supportsInterface}."
      },
      "transferOwnership(address)": {
        "details": "Transfers ownership of the contract to a new account (`newOwner`). Can only be called by the current owner."
      },
      "uri(uint256)": {
        "details": "See {IERC1155MetadataURI-uri}. This implementation returns the same URI for *all* token types. It relies on the token type ID substitution mechanism https://eips.ethereum.org/EIPS/eip-1155#metadata[defined in the EIP]. Clients calling this function must replace the `\\{id\\}` substring with the actual token type ID."
      }
    },
    "version": 1
  },
  "userdoc": {
    "kind": "user",
    "methods": {},
    "version": 1
  }
}