{
  "contractName": "Debate",
  "abi": [
    {
      "inputs": [],
      "stateMutability": "nonpayable",
      "type": "constructor"
    },
    {
      "anonymous": false,
      "inputs": [
        {
          "indexed": false,
          "internalType": "uint256",
          "name": "id",
          "type": "uint256"
        },
        {
          "indexed": false,
          "internalType": "uint256",
          "name": "title",
          "type": "uint256"
        }
      ],
      "name": "Archived",
      "type": "event"
    },
    {
      "anonymous": false,
      "inputs": [
        {
          "indexed": true,
          "internalType": "address",
          "name": "previousOwner",
          "type": "address"
        },
        {
          "indexed": true,
          "internalType": "address",
          "name": "newOwner",
          "type": "address"
        }
      ],
      "name": "OwnershipTransferred",
      "type": "event"
    },
    {
      "anonymous": false,
      "inputs": [
        {
          "components": [
            {
              "internalType": "uint256",
              "name": "id",
              "type": "uint256"
            },
            {
              "internalType": "uint256",
              "name": "title",
              "type": "uint256"
            },
            {
              "internalType": "uint256",
              "name": "agreeComment",
              "type": "uint256"
            },
            {
              "internalType": "uint256",
              "name": "neutralComment",
              "type": "uint256"
            },
            {
              "internalType": "uint256",
              "name": "disagreeComment",
              "type": "uint256"
            }
          ],
          "indexed": false,
          "internalType": "struct Debate.DebatePost",
          "name": "post",
          "type": "tuple"
        }
      ],
      "name": "Query",
      "type": "event"
    },
    {
      "inputs": [],
      "name": "owner",
      "outputs": [
        {
          "internalType": "address",
          "name": "",
          "type": "address"
        }
      ],
      "stateMutability": "view",
      "type": "function"
    },
    {
      "inputs": [],
      "name": "renounceOwnership",
      "outputs": [],
      "stateMutability": "nonpayable",
      "type": "function"
    },
    {
      "inputs": [
        {
          "internalType": "address",
          "name": "newOwner",
          "type": "address"
        }
      ],
      "name": "transferOwnership",
      "outputs": [],
      "stateMutability": "nonpayable",
      "type": "function"
    },
    {
      "inputs": [
        {
          "internalType": "uint256",
          "name": "id",
          "type": "uint256"
        },
        {
          "internalType": "uint256",
          "name": "title",
          "type": "uint256"
        },
        {
          "internalType": "uint256",
          "name": "agreeComment",
          "type": "uint256"
        },
        {
          "internalType": "uint256",
          "name": "neturalComment",
          "type": "uint256"
        },
        {
          "internalType": "uint256",
          "name": "disagreeComment",
          "type": "uint256"
        }
      ],
      "name": "archiving",
      "outputs": [
        {
          "internalType": "bool",
          "name": "",
          "type": "bool"
        }
      ],
      "stateMutability": "nonpayable",
      "type": "function"
    },
    {
      "inputs": [
        {
          "internalType": "uint256",
          "name": "id",
          "type": "uint256"
        }
      ],
      "name": "lookFor",
      "outputs": [
        {
          "internalType": "uint256",
          "name": "",
          "type": "uint256"
        }
      ],
      "stateMutability": "nonpayable",
      "type": "function"
    }
  ],
  "bytecode": "0x608060405234801561001057600080fd5b5061002d61002261003260201b60201c565b61003a60201b60201c565b6100fe565b600033905090565b60008060009054906101000a900473ffffffffffffffffffffffffffffffffffffffff169050816000806101000a81548173ffffffffffffffffffffffffffffffffffffffff021916908373ffffffffffffffffffffffffffffffffffffffff1602179055508173ffffffffffffffffffffffffffffffffffffffff168173ffffffffffffffffffffffffffffffffffffffff167f8be0079c531659141344cd1fd0a4f28419497f9722a3daafe3b4186f6b6457e060405160405180910390a35050565b610ac58061010d6000396000f3fe608060405234801561001057600080fd5b50600436106100575760003560e01c8063715018a61461005c5780638da5cb5b14610066578063d2dfb58514610084578063f2fde38b146100b4578063f7fd58e6146100d0575b600080fd5b610064610100565b005b61006e610188565b60405161007b9190610612565b60405180910390f35b61009e60048036038101906100999190610668565b6101b1565b6040516100ab91906106fe565b60405180910390f35b6100ce60048036038101906100c99190610745565b6103a4565b005b6100ea60048036038101906100e59190610772565b61049c565b6040516100f791906107ae565b60405180910390f35b610108610505565b73ffffffffffffffffffffffffffffffffffffffff16610126610188565b73ffffffffffffffffffffffffffffffffffffffff161461017c576040517f08c379a000000000000000000000000000000000000000000000000000000000815260040161017390610826565b60405180910390fd5b610186600061050d565b565b60008060009054906101000a900473ffffffffffffffffffffffffffffffffffffffff16905090565b60006101bb610505565b73ffffffffffffffffffffffffffffffffffffffff166101d9610188565b73ffffffffffffffffffffffffffffffffffffffff161461022f576040517f08c379a000000000000000000000000000000000000000000000000000000000815260040161022690610826565b60405180910390fd5b600060016000888152602001908152602001600020600101541115610289576040517f08c379a0000000000000000000000000000000000000000000000000000000008152600401610280906108b8565b60405180910390fd5b60006040518060a00160405280888152602001878152602001868152602001858152602001848152509050806001600089815260200190815260200160002060008201518160000155602082015181600101556040820151816002015560608201518160030155608082015181600401559050506002819080600181540180825580915050600190039060005260206000209060050201600090919091909150600082015181600001556020820151816001015560408201518160020155606082015181600301556080820151816004015550507ff6b8d57b008ca5927a4713d37b65a3700a2a45d745bfa13cbf3f1c8ab4b9e28f878760405161038e9291906108d8565b60405180910390a1600191505095945050505050565b6103ac610505565b73ffffffffffffffffffffffffffffffffffffffff166103ca610188565b73ffffffffffffffffffffffffffffffffffffffff1614610420576040517f08c379a000000000000000000000000000000000000000000000000000000000815260040161041790610826565b60405180910390fd5b600073ffffffffffffffffffffffffffffffffffffffff168173ffffffffffffffffffffffffffffffffffffffff161415610490576040517f08c379a000000000000000000000000000000000000000000000000000000000815260040161048790610973565b60405180910390fd5b6104998161050d565b50565b60007f6a771d848cdb71606fe8b3d31e6c01ea15be4fca721e49609ef6d4603569278d600160008481526020019081526020016000206040516104df9190610a74565b60405180910390a160016000838152602001908152602001600020600101549050919050565b600033905090565b60008060009054906101000a900473ffffffffffffffffffffffffffffffffffffffff169050816000806101000a81548173ffffffffffffffffffffffffffffffffffffffff021916908373ffffffffffffffffffffffffffffffffffffffff1602179055508173ffffffffffffffffffffffffffffffffffffffff168173ffffffffffffffffffffffffffffffffffffffff167f8be0079c531659141344cd1fd0a4f28419497f9722a3daafe3b4186f6b6457e060405160405180910390a35050565b600073ffffffffffffffffffffffffffffffffffffffff82169050919050565b60006105fc826105d1565b9050919050565b61060c816105f1565b82525050565b60006020820190506106276000830184610603565b92915050565b600080fd5b6000819050919050565b61064581610632565b811461065057600080fd5b50565b6000813590506106628161063c565b92915050565b600080600080600060a086880312156106845761068361062d565b5b600061069288828901610653565b95505060206106a388828901610653565b94505060406106b488828901610653565b93505060606106c588828901610653565b92505060806106d688828901610653565b9150509295509295909350565b60008115159050919050565b6106f8816106e3565b82525050565b600060208201905061071360008301846106ef565b92915050565b610722816105f1565b811461072d57600080fd5b50565b60008135905061073f81610719565b92915050565b60006020828403121561075b5761075a61062d565b5b600061076984828501610730565b91505092915050565b6000602082840312156107885761078761062d565b5b600061079684828501610653565b91505092915050565b6107a881610632565b82525050565b60006020820190506107c3600083018461079f565b92915050565b600082825260208201905092915050565b7f4f776e61626c653a2063616c6c6572206973206e6f7420746865206f776e6572600082015250565b60006108106020836107c9565b915061081b826107da565b602082019050919050565b6000602082019050818103600083015261083f81610803565b9050919050565b7f706f7374207769746820636f72726573706f6e64696e6720696420697320616c60008201527f7265616479206578697374000000000000000000000000000000000000000000602082015250565b60006108a2602b836107c9565b91506108ad82610846565b604082019050919050565b600060208201905081810360008301526108d181610895565b9050919050565b60006040820190506108ed600083018561079f565b6108fa602083018461079f565b9392505050565b7f4f776e61626c653a206e6577206f776e657220697320746865207a65726f206160008201527f6464726573730000000000000000000000000000000000000000000000000000602082015250565b600061095d6026836107c9565b915061096882610901565b604082019050919050565b6000602082019050818103600083015261098c81610950565b9050919050565b60008160001c9050919050565b6000819050919050565b60006109bd6109b883610993565b6109a0565b9050919050565b6109cd81610632565b82525050565b60a0820160008083015490506109e8816109aa565b6109f560008601826109c4565b5060018301549050610a06816109aa565b610a1360208601826109c4565b5060028301549050610a24816109aa565b610a3160408601826109c4565b5060038301549050610a42816109aa565b610a4f60608601826109c4565b5060048301549050610a60816109aa565b610a6d60808601826109c4565b5050505050565b600060a082019050610a8960008301846109d3565b9291505056fea264697066735822122010bd9cc9a3c0a1017d8f4837c0939f2196cf4546f91a9e2deffafd54b1c6f09764736f6c634300080a0033",
  "immutableReferences": {},
  "source": "// SPDX-License-Identifier: MIT\npragma solidity ^0.8.10;\n\nimport \"openzeppelin-solidity/contracts/access/Ownable.sol\";\n\ncontract Debate is Ownable {\n    struct DebatePost {\n        uint256 id;\n        uint256 title;\n        uint256 agreeComment;\n        uint256 neutralComment;\n        uint256 disagreeComment;\n    }\n\n    mapping (uint256 => DebatePost) private postWithId;\n\n    DebatePost[] archive;\n\n    event Archived(uint256 id, uint256 title);\n    event Query(DebatePost post);\n    constructor() {\n\n    }\n\n\n\n    function archiving (uint256 id, uint256 title, uint256 agreeComment, uint256 neturalComment, uint256 disagreeComment) external onlyOwner returns(bool) {\n        require(!(postWithId[id].title > 0) , \"post with corresponding id is already exist\");\n        DebatePost memory archived = DebatePost(id, title, agreeComment, neturalComment, disagreeComment);\n        postWithId[id] = archived;\n        archive.push(archived);\n        emit Archived(id, title);\n        return true;\n    }\n\n    function lookFor (uint256 id) public returns(uint256){\n        emit Query(postWithId[id]);\n        return postWithId[id].title;\n    }\n\n\n}",
  "sourcePath": "/Users/yooseungjun/Desktop/blockchain/Project-Agora_server/truffle/contracts/Debate.sol",
  "compiler": {
    "name": "solc",
    "version": "0.8.10+commit.fc410830.Emscripten.clang"
  },
  "schemaVersion": "3.4.7",
  "updatedAt": "2022-07-10T12:01:38.142Z",
  "devdoc": {
    "kind": "dev",
    "methods": {
      "owner()": {
        "details": "Returns the address of the current owner."
      },
      "renounceOwnership()": {
        "details": "Leaves the contract without owner. It will not be possible to call `onlyOwner` functions anymore. Can only be called by the current owner. NOTE: Renouncing ownership will leave the contract without an owner, thereby removing any functionality that is only available to the owner."
      },
      "transferOwnership(address)": {
        "details": "Transfers ownership of the contract to a new account (`newOwner`). Can only be called by the current owner."
      }
    },
    "version": 1
  },
  "userdoc": {
    "kind": "user",
    "methods": {},
    "version": 1
  }
}