{
  "contractName": "Debate",
  "abi": [
    {
      "inputs": [],
      "stateMutability": "nonpayable",
      "type": "constructor"
    },
    {
      "anonymous": false,
      "inputs": [
        {
          "indexed": false,
          "internalType": "uint256",
          "name": "id",
          "type": "uint256"
        },
        {
          "indexed": false,
          "internalType": "string",
          "name": "title",
          "type": "string"
        }
      ],
      "name": "Archived",
      "type": "event"
    },
    {
      "anonymous": false,
      "inputs": [
        {
          "indexed": true,
          "internalType": "address",
          "name": "previousOwner",
          "type": "address"
        },
        {
          "indexed": true,
          "internalType": "address",
          "name": "newOwner",
          "type": "address"
        }
      ],
      "name": "OwnershipTransferred",
      "type": "event"
    },
    {
      "anonymous": false,
      "inputs": [
        {
          "components": [
            {
              "internalType": "uint256",
              "name": "id",
              "type": "uint256"
            },
            {
              "internalType": "string",
              "name": "title",
              "type": "string"
            },
            {
              "internalType": "string",
              "name": "agreeComment",
              "type": "string"
            },
            {
              "internalType": "string",
              "name": "neutralComment",
              "type": "string"
            },
            {
              "internalType": "string",
              "name": "disagreeComment",
              "type": "string"
            }
          ],
          "indexed": false,
          "internalType": "struct Debate.DebatePost",
          "name": "post",
          "type": "tuple"
        }
      ],
      "name": "Query",
      "type": "event"
    },
    {
      "inputs": [],
      "name": "owner",
      "outputs": [
        {
          "internalType": "address",
          "name": "",
          "type": "address"
        }
      ],
      "stateMutability": "view",
      "type": "function"
    },
    {
      "inputs": [],
      "name": "renounceOwnership",
      "outputs": [],
      "stateMutability": "nonpayable",
      "type": "function"
    },
    {
      "inputs": [
        {
          "internalType": "address",
          "name": "newOwner",
          "type": "address"
        }
      ],
      "name": "transferOwnership",
      "outputs": [],
      "stateMutability": "nonpayable",
      "type": "function"
    },
    {
      "inputs": [
        {
          "internalType": "uint256",
          "name": "id",
          "type": "uint256"
        },
        {
          "internalType": "string",
          "name": "title",
          "type": "string"
        },
        {
          "internalType": "string",
          "name": "agreeComment",
          "type": "string"
        },
        {
          "internalType": "string",
          "name": "neturalComment",
          "type": "string"
        },
        {
          "internalType": "string",
          "name": "disagreeComment",
          "type": "string"
        }
      ],
      "name": "archiving",
      "outputs": [
        {
          "internalType": "bool",
          "name": "",
          "type": "bool"
        }
      ],
      "stateMutability": "nonpayable",
      "type": "function"
    },
    {
      "inputs": [
        {
          "internalType": "uint256",
          "name": "id",
          "type": "uint256"
        }
      ],
      "name": "lookFor",
      "outputs": [
        {
          "internalType": "bool",
          "name": "",
          "type": "bool"
        }
      ],
      "stateMutability": "nonpayable",
      "type": "function"
    }
  ],
  "bytecode": "0x608060405234801561001057600080fd5b5061002d61002261003260201b60201c565b61003a60201b60201c565b6100fe565b600033905090565b60008060009054906101000a900473ffffffffffffffffffffffffffffffffffffffff169050816000806101000a81548173ffffffffffffffffffffffffffffffffffffffff021916908373ffffffffffffffffffffffffffffffffffffffff1602179055508173ffffffffffffffffffffffffffffffffffffffff168173ffffffffffffffffffffffffffffffffffffffff167f8be0079c531659141344cd1fd0a4f28419497f9722a3daafe3b4186f6b6457e060405160405180910390a35050565b610e3c8061010d6000396000f3fe608060405234801561001057600080fd5b50600436106100575760003560e01c8063715018a61461005c5780638da5cb5b14610066578063bdceec4514610084578063f2fde38b146100b4578063f7fd58e6146100d0575b600080fd5b610064610100565b005b61006e610188565b60405161007b91906107f4565b60405180910390f35b61009e600480360381019061009991906108b4565b6101b1565b6040516100ab91906109cb565b60405180910390f35b6100ce60048036038101906100c99190610a12565b6104f8565b005b6100ea60048036038101906100e59190610a3f565b6105f0565b6040516100f791906109cb565b60405180910390f35b610108610644565b73ffffffffffffffffffffffffffffffffffffffff16610126610188565b73ffffffffffffffffffffffffffffffffffffffff161461017c576040517f08c379a000000000000000000000000000000000000000000000000000000000815260040161017390610ac9565b60405180910390fd5b610186600061064c565b565b60008060009054906101000a900473ffffffffffffffffffffffffffffffffffffffff16905090565b60006101bb610644565b73ffffffffffffffffffffffffffffffffffffffff166101d9610188565b73ffffffffffffffffffffffffffffffffffffffff161461022f576040517f08c379a000000000000000000000000000000000000000000000000000000000815260040161022690610ac9565b60405180910390fd5b60006040518060a001604052808c81526020018b8b8080601f016020809104026020016040519081016040528093929190818152602001838380828437600081840152601f19601f82011690508083019250505050505050815260200189898080601f016020809104026020016040519081016040528093929190818152602001838380828437600081840152601f19601f82011690508083019250505050505050815260200187878080601f016020809104026020016040519081016040528093929190818152602001838380828437600081840152601f19601f82011690508083019250505050505050815260200185858080601f016020809104026020016040519081016040528093929190818152602001838380828437600081840152601f19601f82011690508083019250505050505050815250905080600160008d81526020019081526020016000206000820151816000015560208201518160010190805190602001906103a4929190610710565b5060408201518160020190805190602001906103c1929190610710565b5060608201518160030190805190602001906103de929190610710565b5060808201518160040190805190602001906103fb929190610710565b509050506002819080600181540180825580915050600190039060005260206000209060050201600090919091909150600082015181600001556020820151816001019080519060200190610451929190610710565b50604082015181600201908051906020019061046e929190610710565b50606082015181600301908051906020019061048b929190610710565b5060808201518160040190805190602001906104a8929190610710565b5050507ff5366e91af8d4c7114f769346bddd54fc6c98dce596fa4f08f6e568de2ffb1788b8b8b6040516104de93929190610b45565b60405180910390a160019150509998505050505050505050565b610500610644565b73ffffffffffffffffffffffffffffffffffffffff1661051e610188565b73ffffffffffffffffffffffffffffffffffffffff1614610574576040517f08c379a000000000000000000000000000000000000000000000000000000000815260040161056b90610ac9565b60405180910390fd5b600073ffffffffffffffffffffffffffffffffffffffff168173ffffffffffffffffffffffffffffffffffffffff1614156105e4576040517f08c379a00000000000000000000000000000000000000000000000000000000081526004016105db90610be9565b60405180910390fd5b6105ed8161064c565b50565b60007fcd4ac436edf486fce7b9948f1a86c3d6854b6c25bf69c621f24356b736d7de36600160008481526020019081526020016000206040516106339190610de4565b60405180910390a160019050919050565b600033905090565b60008060009054906101000a900473ffffffffffffffffffffffffffffffffffffffff169050816000806101000a81548173ffffffffffffffffffffffffffffffffffffffff021916908373ffffffffffffffffffffffffffffffffffffffff1602179055508173ffffffffffffffffffffffffffffffffffffffff168173ffffffffffffffffffffffffffffffffffffffff167f8be0079c531659141344cd1fd0a4f28419497f9722a3daafe3b4186f6b6457e060405160405180910390a35050565b82805461071c90610c78565b90600052602060002090601f01602090048101928261073e5760008555610785565b82601f1061075757805160ff1916838001178555610785565b82800160010185558215610785579182015b82811115610784578251825591602001919060010190610769565b5b5090506107929190610796565b5090565b5b808211156107af576000816000905550600101610797565b5090565b600073ffffffffffffffffffffffffffffffffffffffff82169050919050565b60006107de826107b3565b9050919050565b6107ee816107d3565b82525050565b600060208201905061080960008301846107e5565b92915050565b600080fd5b600080fd5b6000819050919050565b61082c81610819565b811461083757600080fd5b50565b60008135905061084981610823565b92915050565b600080fd5b600080fd5b600080fd5b60008083601f8401126108745761087361084f565b5b8235905067ffffffffffffffff81111561089157610890610854565b5b6020830191508360018202830111156108ad576108ac610859565b5b9250929050565b600080600080600080600080600060a08a8c0312156108d6576108d561080f565b5b60006108e48c828d0161083a565b99505060208a013567ffffffffffffffff81111561090557610904610814565b5b6109118c828d0161085e565b985098505060408a013567ffffffffffffffff81111561093457610933610814565b5b6109408c828d0161085e565b965096505060608a013567ffffffffffffffff81111561096357610962610814565b5b61096f8c828d0161085e565b945094505060808a013567ffffffffffffffff81111561099257610991610814565b5b61099e8c828d0161085e565b92509250509295985092959850929598565b60008115159050919050565b6109c5816109b0565b82525050565b60006020820190506109e060008301846109bc565b92915050565b6109ef816107d3565b81146109fa57600080fd5b50565b600081359050610a0c816109e6565b92915050565b600060208284031215610a2857610a2761080f565b5b6000610a36848285016109fd565b91505092915050565b600060208284031215610a5557610a5461080f565b5b6000610a638482850161083a565b91505092915050565b600082825260208201905092915050565b7f4f776e61626c653a2063616c6c6572206973206e6f7420746865206f776e6572600082015250565b6000610ab3602083610a6c565b9150610abe82610a7d565b602082019050919050565b60006020820190508181036000830152610ae281610aa6565b9050919050565b610af281610819565b82525050565b82818337600083830152505050565b6000601f19601f8301169050919050565b6000610b248385610a6c565b9350610b31838584610af8565b610b3a83610b07565b840190509392505050565b6000604082019050610b5a6000830186610ae9565b8181036020830152610b6d818486610b18565b9050949350505050565b7f4f776e61626c653a206e6577206f776e657220697320746865207a65726f206160008201527f6464726573730000000000000000000000000000000000000000000000000000602082015250565b6000610bd3602683610a6c565b9150610bde82610b77565b604082019050919050565b60006020820190508181036000830152610c0281610bc6565b9050919050565b60008160001c9050919050565b6000819050919050565b6000610c33610c2e83610c09565b610c16565b9050919050565b610c4381610819565b82525050565b7f4e487b7100000000000000000000000000000000000000000000000000000000600052602260045260246000fd5b60006002820490506001821680610c9057607f821691505b60208210811415610ca457610ca3610c49565b5b50919050565b600082825260208201905092915050565b60008190508160005260206000209050919050565b60008154610cdd81610c78565b610ce78186610caa565b94506001821660008114610d025760018114610d1457610d47565b60ff1983168652602086019350610d47565b610d1d85610cbb565b60005b83811015610d3f57815481890152600182019150602081019050610d20565b808801955050505b50505092915050565b600060a083016000808401549050610d6781610c20565b610d746000870182610c3a565b50600184018583036020870152610d8b8382610cd0565b925050600284018583036040870152610da48382610cd0565b925050600384018583036060870152610dbd8382610cd0565b925050600484018583036080870152610dd68382610cd0565b925050819250505092915050565b60006020820190508181036000830152610dfe8184610d50565b90509291505056fea2646970667358221220e2cd738c08a0533a8dc0014394e5e06914fd1514588867ee13d2ca2c01730afc64736f6c634300080a0033",
  "immutableReferences": {},
  "source": "// SPDX-License-Identifier: MIT\npragma solidity ^0.8.10;\n\nimport \"openzeppelin-solidity/contracts/access/Ownable.sol\";\n\ncontract Debate is Ownable {\n    struct DebatePost {\n        uint256 id;\n        string title;\n        string agreeComment;\n        string neutralComment;\n        string disagreeComment;\n    }\n\n    mapping (uint256 => DebatePost) private postWithId;\n\n    DebatePost[] archive;\n\n    event Archived(uint256 id, string title);\n    event Query(DebatePost post);\n    constructor() {\n\n    }\n\n\n\n    function archiving (uint256 id, string calldata title, string calldata agreeComment, string calldata neturalComment, string calldata disagreeComment) external onlyOwner returns(bool) {\n        DebatePost memory archived = DebatePost(id, title, agreeComment, neturalComment, disagreeComment);\n        postWithId[id] = archived;\n        archive.push(archived);\n        emit Archived(id, title);\n        return true;\n    }\n\n    function lookFor (uint256 id) public returns(bool){\n        emit Query(postWithId[id]);\n        return true;\n    }\n\n\n}",
  "sourcePath": "/Users/yooseungjun/Desktop/blockchain/Project-Agora_server/truffle/contracts/Debate.sol",
  "compiler": {
    "name": "solc",
    "version": "0.8.10+commit.fc410830.Emscripten.clang"
  },
  "schemaVersion": "3.4.7",
  "updatedAt": "2022-07-20T07:20:53.145Z",
  "devdoc": {
    "kind": "dev",
    "methods": {
      "owner()": {
        "details": "Returns the address of the current owner."
      },
      "renounceOwnership()": {
        "details": "Leaves the contract without owner. It will not be possible to call `onlyOwner` functions anymore. Can only be called by the current owner. NOTE: Renouncing ownership will leave the contract without an owner, thereby removing any functionality that is only available to the owner."
      },
      "transferOwnership(address)": {
        "details": "Transfers ownership of the contract to a new account (`newOwner`). Can only be called by the current owner."
      }
    },
    "version": 1
  },
  "userdoc": {
    "kind": "user",
    "methods": {},
    "version": 1
  }
}